:020000040800F2
:100000006883002061030008554B0008794600080A
:10001000514B0008750C00085D85000800000000C9
:100020000000000000000000000000006D02000859
:10003000670F000800000000C9020008ED62000818
:100040007B0300087B0300087B0300087B03000898
:100050007B0300087B0300087B0300087B03000888
:100060007B0300087B0300087B0300087B03000878
:100070007B0300087B0300087B0300087B03000868
:100080004D0E00087B0300087B0300087B0300087B
:10009000790C00087B0300087B0300087B03000841
:1000A0007B0300087B0300087B0300087B03000838
:1000B0007B0300087B0300087B0300087B03000828
:1000C0007B0300087B0300087B0300087B03000818
:1000D0007B030008216900083169000841690008B4
:1000E0007B0300087B0300087B0300087B030008F8
:1000F0007B0300087B0300087B0300087B030008E8
:100100007B0300087B0300087B0300087B030008D7
:10011000A96400087B0300087B030008CD63000886
:100120007B0300085D0E00086D0E00087B030008CD
:100130007B0300087B0300087B0300087B030008A7
:10014000890C00087B0300087B030008594B00085A
:100150007B0300087B0300087B030008516900084B
:100160007B0300087B0300087B0300087B03000877
:100170007B0300087B0300087B03000800000000ED
:100180007B0300087B03000800F002F800F05EF833
:100190000AA090E8000C82448344AAF10107DA45E2
:1001A00001D100F053F8AFF2090EBAE80F0013F0D6
:1001B000010F18BFFB1A43F001031847DCE70000EA
:1001C000FCE700000A444FF0000C10F8013B13F06C
:1001D000070408BF10F8014B1D1108BF10F8015BA0
:1001E000641E05D010F8016B641E01F8016BF9D193
:1001F00013F0080F1EBF10F8014BAD1C0C1B09D1EA
:100200006D1E58BF01F801CBFAD505E014F8016B5B
:1002100001F8016B6D1EF9D59142D6D370470000ED
:100220000023002400250026103A28BF78C1FBD8FF
:10023000520728BF30C148BF0B6070471FB50EF092
:100240002BF800F060F91FBD10B510BD00F074FA76
:100250001146FFF7F3FF0AF0E9FC00F092FA03B44D
:10026000FFF7F2FF03BC00F095FA00002C4B196871
:100270000868B0E8F04F80F30988BFF36F8F4FF044
:10028000000080F3118870470000000008480068F3
:10029000006880F308884FF0000080F3148862B68D
:1002A00061B6BFF34F8FBFF36F8F00DF00BF00BF9A
:1002B00008ED00E0DFF80C00016841F47001016016
:1002C000704700BF88ED00E0EFF30980BFF36F8F48
:1002D000134B1A681EF0100F08BF20ED108A20E99A
:1002E000F04F106009B44FF0500080F31188BFF355
:1002F0004F8FBFF36F8F0CF087FB4FF0000080F340
:10030000118809BC19680868B0E8F04F1EF0100F9A
:1003100008BFB0EC108A80F30988BFF36F8F704775
:10032000CC030020EFF30580704700000B49D1F8A3
:1003300000C04A685CF8043B1068184442F8040B9B
:100340008C4528BFA1F1DC0C8A4228BFA1F1DC0258
:10035000C1F800C04A6020F000407047007D0020D6
:100360000948804709480047FEE7FEE7FEE7FEE749
:10037000FEE7FEE7FEE7FEE7FEE7FEE70448054985
:10038000054A064B70470000BD630008890100085C
:10039000687D002068830020687F0020687F00203F
:1003A00053EA020C00F069802DE9F04B4FF0000693
:1003B000002B1FBFB3FA83F503FA05F424FA05F600
:1003C0005E4012BF1643B2FA82F502FA05F4C5F197
:1003D00020051EBF22FA05FC44EA0C04203556EA2B
:1003E000044C4FEA144418BF641C4FF000084FF04F
:1003F0000009904271EB030C39D3002919BFB1FAFF
:1004000081F701FA07F6B0FA80F700FA07F6C7F1AC
:1004100020071EBF20FA07FC46EA0C062037B6FB71
:10042000F4FCA7EB0507103F07F01F0BCBF12006EC
:100430000CFA0BFB2CFA06F644BFB3460026202F1D
:10044000A4BF5E464FF0000B5BEA060C08BF4FF0FE
:10045000010B19EB0B09ABFB027C48EB0608C01B38
:1004600006FB02CC0BFB03CC71EB0C01C1E70B4686
:10047000024641464846BDE8F08B13B54FF00000F8
:100480004FF00001AFF30080BDE81C407047B2F1AF
:1004900020030AD5C2F1200301FA02F120FA03F386
:1004A00000FA02F041EA0301704700FA03F14FF04D
:1004B00000007047B2F120030AD5C2F1200320FAF0
:1004C00002F001FA03F321FA02F140EA0300704757
:1004D00021FA03F04FF00001704700000B4910B5FE
:1004E000A1F17C020A4CC2E93712372106E000EB89
:1004F000104342F82130074B00FB03400B1EA1F1D3
:100500000101F4DC10BD0120E8E70000A07C002020
:10051000E119D666CD0D010030B505460B462A46D9
:1005200013F8014B12F8010B08B1A042F8D01CB12E
:10053000002802D06D1CF1E7284630BD10B5431CE1
:1005400002E010F8011B71B18107FAD14FF00132BE
:1005500002C88C1A8C4314EAC211F9D0C01A0A06D8
:1005600003D0C01E10BDC01A10BD0A0401D0801EE9
:1005700010BD0902FCD0401E10BD032A40F230809D
:1005800010F0030C00F0158011F8013BBCF1020FD4
:10059000624498BF11F801CB00F8013B38BF11F855
:1005A000013BA2F1040298BF00F801CB38BF00F86C
:1005B000013B11F0030300F06280083AC0F00880AC
:1005C00051F8043B083A51F804CBA0E80810F5E7CD
:1005D000121D5CBF51F8043B40F8043BAFF30080B0
:1005E000D20724BF11F8013B11F801CB48BF11F825
:1005F000012B24BF00F8013B00F801CB48BF00F8F5
:10060000012B704702F0FF0343EA032242EA024251
:1006100000F069B84FF0000200B5134694469646C4
:10062000203922BFA0E80C50A0E80C50B1F1200105
:10063000BFF4F7AF090728BFA0E80C5048BF0CC0B3
:100640005DF804EB890028BF40F8042B08BF704711
:1006500048BF20F8022B11F0804F18BF00F8012B83
:10066000704770477047704710B500F05DF800683C
:1006700010BD10B5044600F057F8046010BD10B569
:10068000203AC0F00B80B1E81850203AA0E818508A
:10069000B1E81850A0E81850BFF4F5AF5FEA027C4B
:1006A00024BFB1E81850A0E8185044BF18C918C0BA
:1006B000BDE810405FEA827C24BF51F8043B40F85B
:1006C000043B08BF7047D20728BF31F8023B48BF40
:1006D00011F8012B28BF20F8023B48BF00F8012B7E
:1006E00070474FF000020429C0F0128010F0030C94
:1006F0003FF492AFCCF1040CBCF1020F18BF00F82C
:10070000012BA8BF20F8022BA1EB0C01FFF784BF3F
:100710005FEAC17C24BF00F8012B00F8012B48BF21
:1007200000F8012B7047000000487047087D00204A
:1007300000487047087D00207546FFF7F9FFAE4678
:1007400005006946534620F00700854618B020B5DD
:10075000FFF714FEBDE820404FF000064FF0000701
:100760004FF000084FF0000B21F00701AC46ACE859
:10077000C009ACE8C009ACE8C009ACE8C0098D46C6
:10078000704710B50446AFF300802046BDE8104026
:10079000FFF765BD01491820ABBEFEE72600020049
:1007A0007047000000B52DED108B91B0B0EE40AA5F
:1007B000F0EE60AAB0EE418AF0EE618AB0EE42BA85
:1007C000F0EE62BAB0EE439AF0EE639A9FEDFE0B44
:1007D00053EC102B51EC1A0B0DF022FAFC4A03C219
:1007E0009FEDF90B53EC102B51EC180B0DF018FA90
:1007F000F84A03C29FEDF40B53EC102B51EC1B0B8A
:100800000DF00EFAF44A03C29FEDEF0B53EC102BE0
:1008100051EC190B0DF004FAF04A03C253EC182BFB
:1008200051EC190B0DF008FC41EC1D0BB0EE4D0A1C
:10083000F0EE6D0A08F010F9B0EE40CAF0EE60CAB2
:100840009FEDE70B53EC102B51EC1C0B0DF0ACF9AA
:1008500007D853EC182B51EC190B0DF0EDFBE24AC5
:1008600003C253EC182B51EC190B0DF0E5FB41ECD6
:100870001C0B9FEDDE0B53EC102B0DF095F90FD2F6
:1008800053EC192B9FEDDB0B51EC100B0CF09CFE85
:1008900041EC1C0B53EC182B0DF0CEFBD24A03C2DB
:1008A00053EC182B51EC190B0DF0C6FB41EC1C0B53
:1008B0009FEDCB0B53EC102B0DF0B0FA0FD253EC95
:1008C000182B51EC190B0DF0B7FB41EC1C0B9FEDF5
:1008D000C90B53EC102B0DF0AFFBC34A03C29FEDC5
:1008E000BA0B53EC102BC04890ED000B51EC100BE1
:1008F0000DF096F9C14A03C2C14890ED000B53ECCC
:10090000102B90ED000B51EC100B0DF089F941EC20
:100910001F0BBC4890ED000B53EC102B51EC1F0B40
:100920000CF00EFF41EC1E0BB64890ED000B53ECA3
:10093000102B51EC1E0B0CF003FF41EC1D0B9FED37
:10094000B20B53EC102B0DF09FFA41EC1C0BB0EEE8
:100950004C0AF0EE6C0A09F04BF9AD4880ED000B43
:100960009FEDAC0B53EC102B90ED000B51EC100BEA
:100970000CF0E6FE41EC1C0B954890ED000B09F0E5
:10098000D3F8B0EE40FAF0EE60FAA14890ED000B1B
:1009900053EC102B51EC1F0B0DF042F941EC1E0BE8
:1009A0009FED990B53EC102B0CF00EFECDE90201DC
:1009B000874890ED000B09F0B7F8B0EE40FAF0EE82
:1009C00060FA934890ED000B53EC102B51EC1F0B89
:1009D0000DF026F941EC1E0B9FED8B0B53EC102B09
:1009E0000DF052FACDE900019DED020B53EC102BF6
:1009F0009DED000B51EC100B0CF0A2FE41EC1D0B19
:100A0000B0EE4C1AF0EE6C1AB0EE4D0AF0EE6D0A34
:100A100008F012FA8DED060B9FED7E0B53EC102BB8
:100A20006B4890ED000B51EC100B0CF089FE41EC83
:100A30001D0B9FED7A0B53EC102B0CF0C5FD41EC18
:100A40001C0BB0EE4C0AF0EE6C0A09F011F98DEDBA
:100A5000040B9DED060B53EC102B9DED040B51EC9C
:100A6000100B0DF0DDF8CDE908019DED080B07F046
:100A7000FFFF8DED0C0B9FED670B53EC102B6448C3
:100A800090ED000B51EC100B0CF05AFECDE9020179
:100A9000514890ED000B09F047F8B0EE40FAF0EE47
:100AA00060FA5B4890ED000B53EC102B51EC1F0BE0
:100AB0000DF0B6F841EC1E0B9FED530B53EC102BD1
:100AC0000CF082FD41EC1C0B434890ED000B09F04B
:100AD0002BF8B0EE40FAF0EE60FA4D4890ED000BC6
:100AE00053EC102B51EC1F0B0DF09AF841EC1E0B40
:100AF0009FED450B53EC102B0DF0C6F941EC1D0B8F
:100B000053EC1C2B0CF01CFECDE900019DED021BEB
:100B10009DED000B08F090F98DED060B9FED3D0B60
:100B200053EC102B2C4890ED000B51EC100B0CF0FB
:100B300007FE41EC1D0B9FED390B53EC102B0CF015
:100B400043FD41EC1C0BB0EE4C0AF0EE6C0A09F0D0
:100B50008FF88DED040B9DED060B53EC102B9DEDE6
:100B6000040B51EC100B0DF05BF8CDE908019DED85
:100B7000080B07F07DFF8DED0A0B9DED0C0B53EC80
:100B8000102B9DED0A0B51EC100B0DF055FACDE931
:100B90000E019DED0E1B194890ED000B07F064FE51
:100BA000204880ED000B9FED200B53EC102B90EDB7
:100BB000000B51EC100B0DF033F81A4A03C29FEDF5
:100BC0001C0B53EC102B37E011DD52A246DF913F96
:100BD000780200208002002088020020900200207D
:100BE000000000000080664050020020000000006D
:100BF000008066C000000000008076407002002087
:100C00006802002060020020000000000000F03FA9
:100C1000580200200000000000000040EA2E44546A
:100C2000FB21E93F98020020B1C0631ADCA54C40CB
:100C300000000000000000000D4890ED000B51EC9A
:100C4000100B0CF0B1FF0CD2094890ED000B53ECE7
:100C5000102B1FED180B51EC100B0CF0B5FC044AD7
:100C600003C2034890ED000B11B0BDEC108B00BD2A
:100C70009802002000BFFEE710B5024800F023FCF8
:100C800010BD00006005002010B5024800F01BFCFC
:100C900010BD00008805002070B506460C461546BC
:100CA000334886422ED1B5F5006F06D23148056033
:100CB000002030494860886006E000202D49086027
:100CC000084645600420886000202A49C860082042
:100CD00008610020087520782749087060784870FE
:100CE000A0788870E078C8702079087160794871C0
:100CF000A0798871E079C871204B0A461D493046B9
:100D000000F00CFA1E4886422ED1B5F5006F06D2CF
:100D10001C48056000201B494860886006E00020F0
:100D2000184908600846456004208860002015497D
:100D3000C8600820086100200875207812490870F2
:100D400060784870A0788870E078C8702079087161
:100D500060794871A0798871E079C8710B4B0A46B7
:100D60000849304600F0DAF901200AF015F870BDA4
:100D700060050020A40800202C0000203C0000207A
:100D800088050020D80800204000002050000020E6
:100D900004284FF0000070470020704710B5002273
:100DA0000449054805F009FF0449034805F0FBFE26
:100DB000002010BD2825002070140020281D0020D0
:100DC00070B506460C463146114805F0ECFE002190
:100DD0002068104D00280CD90F4B6A8816F801C006
:100DE000501C688003F802C0481C81B22068884209
:100DF000F3D8206868600CF0EDF90021E960A86084
:100E000001202870024805F0ADFE002070BD0000F2
:100E10007014002098030020401900200020704723
:100E200010B50A460849D1F8BC12D1F814120029AD
:100E300001D0012010BD0146034805F0BEFEBDE80B
:100E40001040014805F042BF7014002010B5024860
:100E500001F056F910BD0000E407002010B502486B
:100E600001F04EF910BD00004408002010B5024802
:100E700001F046F910BD00008407002001680A4B0C
:100E8000CAB2103AA3FB02321209084B9B5CC3653D
:100E9000032A04D96FF30901091D816502E06FF38C
:100EA00009018165806D7047ABAAAAAA02E6000815
:100EB000014600208A6A8B69002B0FD0B3F5005FD2
:100EC0001DD08AB3012A30D0022A2ED0032A04D1A1
:100ED000C96A11F0807F00D0012070471AB1012A41
:100EE00007D0022AF9D1C96A11F0807FF5D001201C
:100EF0007047C96AB1F1C07FFAD1012070475AB179
:100F0000012A0BD0022A07D0032AF7D1C96AB1F10E
:100F1000C07FF3D10120704701207047C96A11F0EA
:100F2000807FFAD001207047FFE70120704710B49E
:100F3000D0F800C0DCF8004024F48024CCF8004055
:100F4000D0F800C0CCF804308368402B05D003688B
:100F500099600068C26010BC704703689A600068BE
:100F6000C16010BC7047704772B606E0102103489C
:100F700001F096FB322001F067FAF7E7001002401B
:100F800030B505460C4628782070FE2060706878E1
:100F9000A070A878E070E87820710421601C09F046
:100FA00022FD607130BD00002DE9F84F05468946ED
:100FB000002400260027A046A246A3460020009059
:100FC00014213E4809F004FD00BF08E0A85D242874
:100FD00003D14FF0010A374603E0701C86B2FF2EA2
:100FE000F4DB00BFB6F5FA7F02D10120BDE8F88F2F
:100FF000781C285C062817D006DC01280BD00228B4
:101000000CD005281CD10CE0072816D0FE2811D0E2
:10101000FF2815D10BE04FF0040814E04FF00E0844
:1010200011E04FF004080EE04FF00C080BE04FF019
:10103000050808E04FF0050805E04FF0040802E05D
:101040004FF0000800BF00BF0020E85500240AE070
:101050003819401C285C1949085500213819401CD2
:101060002954601C84B24445F2DBBAF1000F22D04F
:10107000A8F101001149085C0090A8F10100C1B27B
:101080000E4809F0B0FC83460098834511D1242016
:1010900089F80000002405E00848015D601C09F89B
:1010A000001084B24445F7DB08EB0700401CC0B2D7
:1010B0009CE701209AE7012098E700001314002024
:1010C00070B50B480168001D0568001D00680844E4
:1010D00000280CD0074C0822A11C03F0CFFA04F121
:1010E00012012846BDE87040042203F0C7BA70BD63
:1010F000107AFF1F7803002090F82020012A07D0E3
:10110000022A05D0416A41F48021416201207047E2
:1011100000684269114341610020704770B490F843
:101120002040D0F800C0DCF808C0012C08D0022C08
:1011300006D0416A41F48021416270BC01207047B1
:101140000CF080640CF000652C4302D11CF0805F31
:101150005FD0CCF3016CBCF1020F06D9416A41F4B7
:101160000001416270BC01207047012404FA0CF4B4
:101170001C608B684FF4C0749BB1CD6804EB0C16F7
:101180002B434D6843EAC5030568AB514FF4C27366
:10119000066803EB0C130D69F550097D012909D090
:1011A0000DE00D88CB6804EB0C1643EA4553056847
:1011B000AB51EBE70168CD5845F48075CD501179FE
:1011C000D379557941EA036193791B0443EA0523F6
:1011D00019434FF4C675036805EB0C155951117886
:1011E000D37841EA0361937852781B0443EA0222E0
:1011F00011434FF4C473026803EB0C13D150016820
:1012000004EB0C100A5842F001020A5070BC002096
:101210007047416A41F40011416270BC012070477F
:1012200090F82020012A07D0022A05D0416A41F413
:1012300080214162012070474248D0F8002242F0EC
:101240000102C0F80022D0F8002222F47C52C0F83B
:101250000022D0F800224B6A42EA0322C0F80022A2
:101260000A7D012302F01F0203FA02F2D0F81C32B9
:101270009343C0F81C32CB69D3B9D0F80C329343F6
:10128000C0F80C32B1F80CC04B686CF31F43D1F8B6
:1012900014C000EBCC0CCCF84032B1F808C00B689D
:1012A0006CF31F43D1F814C000EBCC0CCCF84432E3
:1012B000CB69012B1AD1D0F80C321343C0F80C3291
:1012C000B1F800C04B686CF31F43D1F814C000EBB9
:1012D000CC0CCCF84032B1F808C0CB686CF31F439B
:1012E000D1F814C000EBCC0CCCF844328B697BB144
:1012F000D0F804321343C0F804320B6973B1D0F84C
:1013000014321343C0F81432096A01290CD010E0DA
:10131000D0F804329343C0F80432EEE7D0F8143228
:101320009343C0F81432EFE7D0F81C121143C0F811
:101330001C12D0F8001221F00101C0F800120020A8
:10134000704700000064004070B50446204600F07D
:1013500002F8054670BD406A704710B490F820C08E
:10136000BCF1010F09D0BCF1020F06D0416A41F473
:101370008021416210BC0120704739B1D0F800C013
:10138000DCF810C01CF0030F7DD006E0D0F800C0E0
:10139000DCF80CC01CF0030F7BD04FF4D87C046841
:1013A0000CEB011C54F80C4004F004049460002C75
:1013B0007DD0046854F80C40E4085460046854F884
:1013C0000CC00CF0020CC2F80CC04FF4DA7C0468BC
:1013D0000CEB011C54F80C4004F00F041461046879
:1013E00054F80C40C4F307249461046854F80CC00A
:1013F0004FEA1C4CC2F814C04FF4DC72D0F800C0A5
:1014000002EB01125CF802C083F800C0D0F800C003
:101410005CF802C04FEA1C2C83F801C0D0F800C071
:101420005CF802C04FEA1C4C83F802C0D0F800C040
:101430005CF80220120EDA704FF4DE72D0F800C0B1
:1014400002EB01125CF802C083F804C0D0F800C0BF
:101450005CF802C04FEA1C2C83F805C0D0F800C02D
:101460005CF802C04FEA1C4C83F806C0D0F800C0FC
:101470005CF80220120EDA71F9B10068016941F0DE
:101480002001016102E00BE003E010E010BC00204D
:101490007047416A41F40011416210BC012070475D
:1014A000416A41F40011416210BC01207047046898
:1014B00054F80C40640D146080E70068C16841F086
:1014C0002001C160DEE72DE9F05F054600242868B1
:1014D0004669D0F804908768D0F80CA0D0F810B016
:1014E000D0F8188016F0010F54D017F0010F17D064
:1014F0000121816017F0020F03D0284600F096FD0D
:101500000EE017F0040F02D04FF4006408E017F06B
:10151000080F02D04FF4805402E0284600F085FD09
:1015200017F4807F19D029684FF48070886017F411
:10153000007F03D0284600F07BFD0EE017F4806F9B
:1015400002D044F4005408E017F4006F02D044F4D1
:10155000804402E0284600F06AFD17F4803F19D06D
:1015600029684FF48030886017F4003F03D0284684
:1015700000F060FD0EE017F4802F02D044F4004428
:1015800008E017F4002F02D044F4803402E028462B
:1015900000F04FFD16F0080F07D01AF0100F04D01E
:1015A00044F4007429681020C86016F0040F4FF04E
:1015B000080707D01AF0080F04D02868C76028462B
:1015C00000F000FA16F0020F07D02868C06810F08B
:1015D000030F02D0284600F0F7F916F0400F07D0AD
:1015E0001BF0100F04D044F48064296810200861B7
:1015F00016F0200F07D01BF0080F04D028680761F1
:10160000284600F0DDFC16F0100F07D028680069AE
:1016100010F0030F02D0284600F0D3FC16F4003F70
:1016200008D019F0100F05D029681020486028460E
:1016300000F0C8FC16F4803F07D019F0080F04D062
:1016400028684760284600F0F6FC16F4004F4AD0A0
:1016500019F0040F44D016F4807F04D018F0010F65
:1016600001D044F0010416F4007F04D018F0020FFA
:1016700001D044F0020416F4806F04D018F0040F77
:1016800001D044F0040416F4006F29D018F0700F54
:1016900026D008F07000402815D006DC102809D0AC
:1016A00020280AD0302816D10AE050280ED0602811
:1016B00011D10EE044F008040DE044F010040AE0FB
:1016C00044F0200407E044F0400404E044F08004C7
:1016D00001E044F480742868816921F0700181611F
:1016E000296804204860002C05D0686A204368629D
:1016F0002846FFF729FEBDE8F09F70B50446002C90
:1017000003D094F8200010B104E0012070BD204601
:1017100000F0A8F82068016841F00101016000F0C4
:10172000CFFF0546206840684FF0050610F0010F16
:1017300011D100F0C5FF401B0A2807D9606A40F4A8
:101740000030606284F82060012070BD206840682D
:1017500010F0010FEDD02068016821F00201016056
:1017600000F0AEFF05462068406810F0020F11D06F
:1017700000F0A6FF401B0A2807D9606A40F4003039
:10178000606284F82060012070BD2068406810F01D
:10179000020FEDD1207E01283FD02068016821F0A2
:1017A00080010160607E01283DD02068016821F041
:1017B00040010160A07E01283BD02068016821F033
:1017C00020010160E07E012839D02068016841F0E5
:1017D00010010160207F012837D02068016821F0C6
:1017E00008010160607F012835D02068016821F080
:1017F00004010160E168A06862690843216911433E
:1018000008436168491E08432168C861002060627E
:10181000012084F82000002070BD2068016841F09C
:1018200080010160BEE72068016841F0400101606D
:10183000C0E72068016841F020010160C2E720682C
:10184000016821F010010160C4E72068016841F0DF
:1018500008010160C6E72068016841F004010160E9
:10186000C8E7000010B586B00446142101A8FEF7B1
:10187000D1FE4E492068884241D14D480068401C45
:101880004B4908600846006801280FD100BF0020BE
:1018900000904848006840F00070464908600846DB
:1018A000006800F00070009000BF00BF00BF002083
:1018B000009040481038006840F008003D49103959
:1018C00008600846006800F00800009000BF00BFF4
:1018D0000320019002200290002003900320049036
:1018E0000920059001A9344800F0C2FD002205211D
:1018F000142000F08BFF142000F07AFF54E02F49F1
:101900002068884250D100BF00200090294800681C
:1019100040F08060274908600846006800F0806059
:10192000009000BF00BF22480068401C20490860AA
:101930000846006801280FD100BF002000901D4814
:10194000006840F000701B4908600846006800F01D
:101950000070009000BF00BF00BF0020009015483D
:101960001038006840F0020012491039086008463B
:10197000006800F00200009000BF00BF60200190EE
:10198000022002900020039003200490092005907B
:1019900001A90B4800F06CFD00220521402000F059
:1019A00035FF402000F024FF06B010BD0064004069
:1019B0004003002040380240000C02400068004014
:1019C0000004024070470000F0B52DED048B85B097
:1019D0000746FC4BFC4A0021FC48FFF7BEFC0028F0
:1019E0007ED1002424208DF80000A0208DF8010075
:1019F000002006E0F3490A5C011D0DF80120411C9E
:101A0000C8B20828F6DBF0484068C0F30F24B4F5EC
:101A1000427F66D019DCB4F5047F6ED00ADCA4F2F4
:101A2000012000286DD0042869D0062868D0082835
:101A300045D1AAE0A4F21520002876D0012875D05F
:101A40000C2874D0EE28F3D117E140F21251601A3D
:101A50008C4235D00CDCA4F21330002868D0012869
:101A600067D0A0F2FD10002877D00128E0D10DE06A
:101A7000A0F56A40F238002870D0A0F6EA6000288D
:101A80006DD001286CD0B228D2D181E111208DF81F
:101A9000020005208DF803000B210DF1010008F074
:101AA000A2FF8DF80C001120C94908700BF092FBC1
:101AB0000021C84A106051600120C74908707BE1CD
:101AC00012208DF8020005208DF803000B210DF186
:101AD000010008F088FF8DF80C001220BC4901E0DD
:101AE0008FE1DDE008700BF075FB0021BB4A106050
:101AF00051600120B84908705EE15AE001E019E048
:101B00002FE001208DF8020002208DF803000B2148
:101B10000DF1010008F067FF8DF80C000020AC49C2
:101B200008700120AC49087046E156E069E07CE0AD
:101B3000CAE0DDE005208DF8020002208DF80300E8
:101B40000B210DF1010008F04EFF8DF80C00012073
:101B50009F490870A04908702EE17AE0DCE0EFE0D0
:101B600002E107208DF8020002208DF803000B210E
:101B70000DF1010008F037FF8DF80C0002209449A8
:101B8000087001209449087016E109208DF80200C0
:101B900002208DF803000B210DF1010008F023FF56
:101BA0008DF80C0003208A49087001208A490870CA
:101BB00002E110208DF8020002208DF803000B21B5
:101BC0000DF1010008F00FFF8DF80C000420804992
:101BD0000870012080490870EEE015208DF80200A1
:101BE00002208DF803000B210DF1010008F0FBFE2F
:101BF0008DF80C00052076490870012076490870A0
:101C0000DAE016208DF8020002208DF803000B2187
:101C10000DF1010008F0E7FE8DF80C0006206C497C
:101C2000087001206C490870C6E021208DF8020080
:101C300002208DF803000B210DF1010008F0D3FE06
:101C40008DF80C0007206249087001206249087075
:101C5000B2E010208DF8020005208DF803000B2162
:101C60000DF1010008F0BFFE8DF80C000820584966
:101C700008700120584908709EE003208DF802008A
:101C80008DF803000B210DF1010008F0ACFE8DF87A
:101C90000C0009204E49087001204F4908708BE064
:101CA00008208DF8020003208DF803000B210DF1B0
:101CB000010008F098FE8DF80C000A2044490870D5
:101CC00001204549087077E013208DF802000320B9
:101CD0008DF803000B210DF1010008F084FE8DF852
:101CE0000C000B203A49087001203B49087063E062
:101CF00014208DF8020003208DF803000B210DF154
:101D0000010008F070FE8DF80C000C2030490870BE
:101D10000120314908704FE004208DF80200F020C6
:101D20008DF803000B210DF1010008F05CFE8DF829
:101D30000C000D20264908700120274908703BE05F
:101D4000EE208DF80200FE208DF803000B210DF12E
:101D5000010008F048FE8DF80C000E201C490870A8
:101D600001201D49087027E0EF208DF80200FE20B9
:101D70008DF803000B210DF1010008F034FE8DF801
:101D80000C000F201249087001201349087013E05D
:101D9000A0208DF80200FF208DF803000B210DF12B
:101DA000010008F020FE8DF80C0010200849087092
:101DB00001200949087000BF00BF07480078F8B14A
:101DC000002018E034000020BC080020600500203E
:101DD0005500002030010020600000203801002064
:101DE0001DF800105F4A12780D2313FB02025E4BB0
:101DF0009954411CC8B20D28F2DB00205B490870E1
:101E000000BF5B4B5B4A00215B48FFF7A6FA002846
:101E10004CD158480068B0F5BA7F48D10BF0DAF9D8
:101E20000021564A106051609FED550B564880EDD9
:101E3000000B564A116051609FED550B564880EDDE
:101E4000000B002410E04A48055D0026E200284609
:101E50003146FEF71CFB4D4AD2E90032C018514111
:101E60004A4A03C2601CC4B2042CECDD474903C9D2
:101E70000BF054FE41EC190B474890ED000B53EC6E
:101E8000102B51EC190B0BF05BFC9FED440B53EC4A
:101E9000102B0CF0D1F83C4A03C235484079414937
:101EA00081F83E003248807981F8490056E0314897
:101EB000006840F2751188423FD10BF08BF9002188
:101EC0002E4A106051609FED2E0B374880ED000BBD
:101ED0000020364A106050609FED2D0B344880ED95
:101EE000000B00240FE02248055D0026E200284692
:101EF0003146FEF7CCFA2D4B0CCB801859412B4ABA
:101F000003C2601CC4B2042CEDDD284903C90BF0E8
:101F100005FE41EC190B264890ED000B53EC102BFD
:101F200051EC190B0BF00CFC9FED220B53EC102B1A
:101F30000CF082F81C4A03C210E00E480068B0F5AD
:101F4000BB7F0BD00A480B4B04900C330FCB8DE8B2
:101F50000F0008480EC8194803F0E6FB05B0BDECB9
:101F6000048BF0BD55000020C00A00206000002056
:101F700048000020F00800208805002028010020EB
:101F80000000000000000000B80000200001002058
:101F90000000000084D797410801002000000000E5
:101FA000008056400C090020C000002010010020D5
:101FB000180100200000000000806640600500203D
:101FC00070477047704770B5044694F820000128A8
:101FD00005D0606A40F400206062012070BD0220DC
:101FE00084F820002068016821F00101016000F000
:101FF00067FB05462068406810F0010F12D000F022
:102000005FFB401B0A2808D9606A40F40030606218
:10201000052084F82000012070BD2068406810F081
:10202000010FECD10020606270BD704770477047AF
:1020300070477047704770472DE9F0410446A66D20
:1020400000F03EFB054694F835000027022806D034
:102050008020606584F834700120BDE8F08120683C
:10206000016821F0160101602068416921F08001BA
:102070004161206C08B9A06C20B12068016821F092
:10208000080101602068016821F0010101602068F9
:10209000006810F0010F12D000F012FB401B052861
:1020A00008D920206065032084F8350084F8347056
:1020B000BDE8F0812068006810F0010FECD194F8C1
:1020C0005C003F2101FA00F0B060012084F8350087
:1020D00084F834700020BDE8F08190F835100229B2
:1020E00003D08021416501207047052180F835101B
:1020F0000068016821F001010160002070470000C4
:102100002DE9F84304464FF00008CDF800807648EA
:102110004FF416510068B0FBF1F7A56D2E6894F8E6
:102120005C00082101FA00F0304211D020680268FA
:1021300012F0040F0CD0026822F00402026094F83E
:102140005C0001FA00F0A860606D40F0010060657D
:1021500094F85C004FF0010909FA00F0304209D010
:102160002168496911F0800F04D0A860606D40F0CB
:102170000200606594F85C1004208840304209D069
:102180002168096811F0020F04D0A860606D40F06A
:102190000400606594F85C1010208840304224D020
:1021A0002168096811F0080F1FD0A8602068016835
:1021B00011F4802F0DD0006810F4002F04D0A16C12
:1021C00099B12046884710E0216C71B120468847BC
:1021D0000BE0016811F4807F03D1016821F0080150
:1021E0000160216C09B12046884794F85C102020DA
:1021F0008840304251D02168096811F0100F4CD04E
:10220000A86094F8350005280DD02068016811F405
:10221000802F32D0006810F4002F29D0E16B59B321
:102220002046884739E02068016821F016010160E6
:102230002068416921F080014161206C08B9A06CDF
:1022400020B12068016821F00801016094F85C0069
:102250003F2101FA00F0A86084F8359084F83480BA
:10226000216D00293ED001B02046BDE8F04308476B
:10227000616C09B1204688470FE0016811F4807F46
:1022800007D1016821F01001016084F8359084F8CD
:102290003480E16B09B120468847606D002821D069
:1022A000606D10F0010F15D0052084F8350020680E
:1022B000016821F0010101600098401C0090B842C3
:1022C00004D82068006810F0010FF5D184F835902B
:1022D00084F83480E16C002904D001B02046BDE8C8
:1022E000F0430847BDE8F883C80300202DE9F0411A
:1022F000044600F0E5F90546DCB1022084F835001B
:10230000002684F834602068016821F00101016032
:102310002068006810F0010F13D000F0D1F9401BC5
:10232000052809D920206065032084F83500BDE820
:10233000F0810120BDE8F0812068006810F0010FF5
:10234000EBD121680868234A1040A3686268D4F87A
:1023500010C01A43E36843EA0C031A4363691A4343
:10236000A3691A43E3691A43236A1A431043626A52
:10237000042A03D1236BE26A1A43104308602068E1
:10238000406920F00701606A40EA0105012704283E
:102390000ED1A06A0543E06A50B12046FEF788FDE1
:1023A00030B14020606584F835700120BDE8F081CF
:1023B000206845612046FEF761FD94F85C103F22DD
:1023C00002FA01F18160666584F835700020BDE88D
:1023D000F08100003F8010F070B504460025A66D26
:1023E00094F8340001280DD0012084F8340094F8CA
:1023F00035C00020BCF1010F06D084F8340002255E
:10240000284670BD022070BD4FF0020C84F835C024
:1024100060652046FEF78BFD94F85C003F2101FAD1
:1024200000F0B0602068016841F016010160206C86
:1024300020B12068016841F008010160206801684E
:1024400041F001010160DBE770B5044600F038F9A6
:102450000546B4F1FF3F02D004480078044400F080
:102460002FF9401BA042FAD370BD0000BC0300202E
:102470002DE9F84F0022DFF81492DFF814A2DFF8FC
:1024800014B24FF0010E03274FF00F080EFA02FCB2
:102490000B6803EA0C0363457DD10C7904F0030457
:1024A000012C01D0022C14D18568540007FA04F6DF
:1024B000B543CE6806FA04F42C438460446824EAE9
:1024C0000C0C0C79C4F30014944044EA0C0CC0F8D2
:1024D00004C0D1F804C037EA0C0C0CD0C4684FEA31
:1024E000420C07FA0CF5AC438D6805FA0CFC4CEA7B
:1024F000040CC0F80CC091F804C00CF0030CBCF143
:10250000020F12D14FEAD20C00EB8C04256A4FEA7D
:10251000427C4FEADC6C08FA0CF6B5430E6906FA09
:102520000CFC4CEA050CC4F820C004684FEA420CCD
:1025300007FA0CF5AC430D7905F0030505FA0CFC20
:102540004CEA040CC0F800C0D1F804C01CF4403FB1
:102550007DD0D9F800C04CF4804CC9F800C0D9F83F
:1025600000C00CF4804CCDF800C022F0030C0CF13C
:10257000804505F59835D5F808C89407240F08FA62
:1025800004F62CEA0606A0F1804CBCF5003C64D0B1
:10259000A0F1804C00E05AE0BCF5013C60D0A0F115
:1025A000804CBCF5023C5ED0A0F1804CBCF5033CF5
:1025B0005CD0A0F1804CBCF5043C5AD0A0F1804C1A
:1025C000BCF5053C58D0A0F1804CBCF5063C56D07B
:1025D000A0F1804CBCF5073C54D04FF0080C0CFA2D
:1025E00004FC4CEA060CC5F808C8DAF800C02CEA6E
:1025F000030C4C6814F4803F01D04CEA030CCAF879
:1026000000C0254CD4F800C02CEA030C4D6815F42A
:10261000003F01D04CEA030CC4F800C0DBF800C056
:102620002CEA030C4C6814F4801F01D04CEA030C14
:10263000CBF800C0194CD4F800C02CEA030C4D684C
:1026400015F4001F01D04CEA030CC4F800C0521C62
:10265000102AFFF41BAFBDE8F88F4FF0000CBEE767
:102660004FF0010CBBE74FF0020CB8E74FF0030C42
:10267000B5E74FF0040CB2E74FF0050CAFE74FF0B1
:10268000060CACE74FF0070CA9E700004438024005
:10269000003C0140083C0140043C01400C3C01402E
:1026A000426921EA0203114043EA01418161704716
:1026B000002A01D0816170470904816170470000E0
:1026C0000148806870470000BC0300200248816810
:1026D0000278114481607047BC03002010B50B489C
:1026E000016841F400710160016841F4806101609A
:1026F000016841F480710160032000F0BBF80F20F5
:1027000000F006F800F04AF8002010BD003C02403E
:1027100070B588B0044600250026002221463720E7
:1027200000F074F8372000F063F800BF002001903B
:102730001648006840F02000144908600846006808
:1027400000F02000019000BF00BF02A903A800F024
:1027500029FE00F04BFE45000D48B5FBF0F0461E8B
:102760000C480D49086040F2E7310B48C1604660F3
:1027700000210161816001F075F920B9064801F07E
:10278000A0F908B070BD0120FBE70000403802400E
:1027900040420F00001400402814002008B500BF7C
:1027A000002000901148006840F480400F49086004
:1027B0000846006800F48040009000BF00BF00BFE2
:1027C00000200090081F006840F08050091F08603A
:1027D0000846006800F08050009000BF00BF002253
:1027E0000F21901E00F012F808BD0000443802408E
:1027F00000280ADB00F01F01012202FA01F1400962
:10280000800000F1E020C0F80011704710B4184BB0
:102810001B68C3F30223C3F1070CBCF1040F01D9F9
:102820004FF0040C1C1D072C01D2002300E0DB1E1E
:10283000012404FA0CFCACF1010C0CEA01019940F2
:1028400004FA03F35B1E1A401143002806DB00F173
:10285000E020090180F8001410BC704700F00F0060
:1028600000F1E020090180F8141D10BC7047000041
:102870000CED00E000F00700064A11684FF6FF0378
:10288000194041EA002040F0FD7040F08060106087
:10289000704700000CED00E07047006841620020C6
:1028A000704730B40368586A00291BD0D3F828C099
:1028B00000EB1C4C00200129A1F101014FF48274AE
:1028C00008D004EB80055D590CEB154C401CC0B2E0
:1028D0008842F6D304EB81014CEA0240585030BCE8
:1028E0000020704740EA02409862F8E7D0F80404FC
:1028F00004F0F7BCC1EBC10200EB8202D0F8040483
:10290000926C04F058BCC1EBC10200EB8202D0F81B
:102910000404D2F8082204F0ACBCD0F8040404F09B
:10292000E2BC70B5044611F0800F01F00F00C0EB5F
:10293000C00104EB81014FF001024FF0000502D00D
:102940003C314A7002E001F5FE714D70087094F858
:10295000BC03012808D084F8BC23206805F004F9E2
:1029600084F8BC53002070BD022070BD70B50446D1
:1029700001F00F026068824201D9012070BD01F0B0
:102980000F00C0EBC00011F0800F04EB80004FF08F
:1029900001034FF0000503D000F13C014B7002E051
:1029A00000F5FE714D708D700A7094F8BC0301281B
:1029B00008D084F8BC33206805F0E8FA84F8BC53EA
:1029C000002070BD022070BD01F00F01C1EBC101FC
:1029D00000EB8100D0F81402704770B5044611F086
:1029E000800F01F00F00C0EBC00104EB81014FF03C
:1029F000010C4FF0000503D03C3181F801C002E02A
:102A000001F5FE714D7008708A60CB704A7802B192
:102A1000C880022B00D10D7194F8BC03012808D0A6
:102A200084F8BCC3206804F0DDFF284684F8BC535A
:102A300070BD022070BD10B50C4604F00F0CCCEB3D
:102A4000CC0100EB810101F5FE71CA604B610023EE
:102A50008B614B7081F800C00369012B00D10A61C2
:102A600014F00F0F05D0027C006805F0EAFA002090
:102A700010BD027C006805F0C3F9F8E770B50446A4
:102A80000D46616805F00F00884201D9012070BD34
:102A900015F0800F4FF000064FF0010206D0C0EB9A
:102AA000C00104EB81013C314A7006E0C5EBC50171
:102AB00004EB810101F5FE714E708A70087094F884
:102AC000BC03012808D084F8BC23206805F08AFAEA
:102AD00015F00F0F02D007E0022070BD217C04F535
:102AE0007172206805F022FA84F8BC63002070BD82
:102AF00010B50C4604F00F0CCCEBCC0100EB8101BF
:102B00003C31CA604B6100238B6101234B7081F81B
:102B100000C00369012B00D10A6114F00F0F05D02A
:102B2000027C006805F08DFA002010BD027C006870
:102B300005F066F9F8E72DE9F05F044625682846B8
:102B400005F0DCFB00287DD1206805F003FC00289F
:102B500078D0206805F0FEFB10F0020F04D020684A
:102B6000416901F002014161206805F0F3FB10F0BA
:102B7000100F36D02068816921F0100181612F6A21
:102B800007F00F00C0EBC00004EB800000F5FE76FC
:102B9000C7F34340022802D0062812D01CE047F6B3
:102BA000F070074218D0C7F30A1217462846F1689A
:102BB00005F0D4FBF0683844F060B0693844B06187
:102BC0000AE0082204F57171284605F0C7FBB069D8
:102BD000C7F30A110844B0612068816941F010010F
:102BE0008161206805F0B6FB10F4002F4FF0010959
:102BF0004FF0080A4FF0100B45D00026206805F072
:102C000088FB80465FEA08003DD018F0010F34D001
:102C1000F1B2206805F096FB074617F0010F07D0C8
:102C200005EB4610C0F8089B3146204601F0C0FF76
:102C300017F0080F09D005EB4610C0F808AB314675
:102C4000204600E090E101F08FFF17F0100F03D055
:102C500005EB4610C0F808BB17F0200F04D005EBB9
:102C600046112020C1F8080B17F4005F05D005EBD2
:102C700046114FF40050C1F8080B761C4FEA580873
:102C8000B8F1000FC1D1206805F064FB10F4802F6B
:102C900063D0206805F036FB80460026B8F1000FAF
:102CA0005BD018F0010F52D0F1B2206805F038FB6C
:102CB000074617F0010F25D006F00F0009FA00F0C3
:102CC000D5F8341821EA0000C5F8340805EB4610A1
:102CD000C0F808992069012810D1C6EBC60004EBA2
:102CE0008000426C816C114481643EB9206D28B92A
:102CF00004F571720121206805F018F9F1B220463F
:102D0000FFF7F8FD17F0080F03D005EB4610C0F8E9
:102D100008A917F0100F03D005EB4610C0F808B94A
:102D200017F0400F04D005EB46114020C1F8080908
:102D300017F0020F04D005EB46110220C1F8080974
:102D400017F0800F03D03146204601F0A7FF761C14
:102D50004FEA5808B8F1000FA3D1206805F0FAFA3D
:102D600010F0004F11D0D5F8040820F00100C5F88C
:102D7000040894F8F403012867D0204600F0F7F91E
:102D80002068416901F000414161206805F0E2FAE4
:102D900010F4006F0CD0D5F8080810F0010F02D025
:102DA000204600F029FA2068416901F40061416180
:102DB000206805F0CFFA10F4805F6CD0D5F80408D5
:102DC00020F00100C5F804081021206805F06CFA15
:102DD00000216068002823D94FF67F3205EB4110AF
:102DE000C0F80829D0F8003923F40013C0F80039DE
:102DF000D0F8003943F00063C0F80039C0F8082B60
:102E0000D0F8003B23F40013C0F8003BD0F8003B9F
:102E100043F00063C0F8003B491C60688842DDD87D
:102E2000D5F81C0840F00110C5F81C08206BA0B1B3
:102E3000D5F8840840F00B00C5F88408D5F844089C
:102E400040F00B00C5F8440814E0002084F8F403B7
:102E500000212046FFF720FD92E7D5F8140842F242
:102E60002B010843C5F81408D5F8100840F00B00F2
:102E7000C5F81008D5F8000820F4FE60C5F8000871
:102E8000217C04F57172206805F050F820684169D2
:102E900001F480514161206805F05CFA10F4005F94
:102EA00016D0206804F0ECFD206805F017FAE06009
:102EB00000F096FA23680146227B184605F0BAFA1C
:102EC000204600F03DF92068416901F4005141615C
:102ED000206805F03FFA10F0080F07D0204600F0F8
:102EE0004AF92068416901F008014161206805F054
:102EF00031FA10F4801F08D00021204600F036F887
:102F00002068416901F480114161206805F022FACE
:102F100010F4001F08D00021204600F02BF8206894
:102F2000416901F400114161206805F013FA10F0C5
:102F3000804F07D02046FFF7D9FC2068416901F097
:102F400080414161206805F005FA10F0040F0BD0B4
:102F50002068456815F0040F02D02046FFF7DDFC1D
:102F60002068416829434160BDE8F09FD0F804041F
:102F700004F00BBAD0F8040404F018BA2DE9F047B5
:102F80008AB00446002C05D0266894F8BD030025BD
:102F900020B108E00AB00120BDE8F08784F8BC53F6
:102FA000204600F08BF8032084F8BD03F06B10F48A
:102FB000807F00D12561206804F01CFF04F110001F
:102FC000D4F82C8090E80F10A76A666A8DE80F107D
:102FD000CDF81C8006970596616B206B09910890CF
:102FE00094E80F0004F05AFD022728B184F8BD735D
:102FF0000AB00120BDE8F0870021206805F0D2F971
:10300000002160680126002813D9C1EBC10004EB40
:10301000800080F83D6080F83C10A0F8421080F8F5
:103020003F50456485640565481CC1B260688842AC
:10303000EBD800216068002814D9C1EBC10004EB73
:10304000800080F8FD5180F8FC1180F8FF51C0F835
:103050000452C0F80852C0F81052481CC1B260684F
:103060008842EAD804F11000D4F82CA090E80F10A0
:10307000D4F82890D4F824808DE80F10CDF81CA047
:10308000CDF81890CDF81480616B206B09910890F1
:1030900094E80F0004F0F2FD28B184F8BD730AB083
:1030A0000120BDE8F08784F8385084F8BD632068BB
:1030B00004F0D6FD0AB00020BDE8F08700B587B067
:1030C0000021029103910491059106910068B0F1ED
:1030D000A04F2BD11648016841F001010160006842
:1030E00000F0010001904FF4C050029002200390C4
:1030F000032005900A20069002A90E48FFF7B8F9B0
:103100000D48016841F0800101600C48016841F4FC
:1031100080410160006800F4804001900022052198
:103120004320FFF773FB4320FFF762FB07B000BDAE
:103130003038024000000240343802404438024037
:1031400070B504460125E06800280ED0022801D0A1
:10315000FDF70AFF2946D4F8040404F096F9D4F8E0
:103160000404BDE8704004F047B90025F2E7D0F848
:10317000040404F06FB9D0F8040404F075B910B574
:10318000044694F8BC0301280BD0012084F8BC034A
:1031900084F83810206805F035F9002084F8BC0365
:1031A00010BD022010BDD0F8042400F57171104646
:1031B00004F077B910B50446206894F8BC130129CF
:1031C00006D0012184F8BC13A16A012902D008E0CD
:1031D000022010BDA169012903D0816B41F4803127
:1031E0008163206805F041F8206804F02BFD002081
:1031F00084F8BC0310BD000010B50446D4F80404E4
:1032000004F093F92068D0F8001E41F00101C0F8E5
:10321000001E206A002804D00248016841F006011F
:10322000016010BD10ED00E02DE9F04704460D46A9
:10323000002C13D0DFF85491D9F80000EFB200F061
:103240000700A8420DD289F80070D9F8000000F0FC
:103250000700A84205D00120BDE8F0870120BDE8A5
:10326000F08720684A4E10F0020F14D010F0040FBF
:1032700003D0306840F4E0503060207810F0080F40
:1032800003D0306840F4604030603068A16820F0BE
:10329000F00008433060207810F0010F3ED06068E5
:1032A0003C49012808D002280DD003280BD009681A
:1032B00011F0020F28D00AE0096811F4003F06D18E
:1032C0000120BDE8F087096811F0007F19D031684E
:1032D00021F0030108433060FFF7F2F980463068BF
:1032E000616800F00C00B0EB810F17D041F2883A12
:1032F000FFF7E6F9A0EB0800504508D90320BDE828
:10330000F0870120BDE8F0870120BDE8F087306834
:10331000616800F00C00B0EB810FE9D1D9F8000032
:1033200000F00700A8420AD989F80070D9F8000017
:1033300000F00700A84202D00120BDE8F087207805
:1033400010F0040F05D03068E16820F4E050084325
:103350003060207810F0080F06D03068216920F422
:10336000604040EAC100306000F060F831680A4A0D
:10337000C1F30311515CC84008490860084800685F
:10338000FFF7C6F90020BDE8F0870000003C0240CE
:1033900008380240003802400AE60008C80300204E
:1033A000C00300200F2202600B4A136803F00303DE
:1033B0004360136803F0F0038360136803F4E05381
:1033C000C360126802F46042D208026103480068D8
:1033D00000F007000860704708380240003C0240D7
:1033E0000148006870470000C803002000B5FFF7DF
:1033F000F7FF04490968044AC1F38221515CC840BF
:1034000000BD0000083802401AE6000800B5FFF7CA
:10341000E7FF04490968044AC1F34231515CC840DE
:1034200000BD0000083802401AE6000810B5174831
:10343000006810F00C01164816D04310042912D071
:10344000082911D1134C216801F03F02216811F4C1
:10345000800F0AD02068C0F38810A0FB030100236E
:10346000FCF79EFF09E0184610BD21680023C1F358
:103470008811A1FB0001FCF793FF2168C1F3014112
:10348000491C4900B0FBF1F010BD000008380240B3
:103490000024F400043802402DE9F84F0446002CC3
:1034A00012D02078FB4E10F0010FA6F1040563D076
:1034B000301D016801F00C0104290CD0006800F0F7
:1034C0000C00082803D010E00120BDE8F88F306818
:1034D00010F4800F09D0286810F4003F4CD06068C9
:1034E000002849D10120BDE8F88F6068B0F5803F21
:1034F00014D0B0F5A02F16D0286820F480302860B2
:10350000286820F480202860606810B3FFF7D8F89E
:103510000746286810F4003F0ED02DE0286840F4DC
:1035200080302860F0E7286840F480202860286810
:1035300040F480302860E7E7FFF7C2F8C01B64283A
:1035400002D90320BDE8F88F286810F4003FF3D0BB
:1035500012E0FFF7B5F80746286810F4003F0BD0DB
:10356000FFF7AEF8C01B642802D90320BDE8F88F2E
:10357000286810F4003FF3D12078C74F10F0020FF5
:103580004FF0000957D0C548016811F00C0F14D056
:10359000006800F00C00082803D1306810F4800F98
:1035A0000BD0E06880B301203860FFF789F88046CF
:1035B000286810F0020F12D01EE0286810F0020FE9
:1035C00005D0E068012802D00120BDE8F88F286806
:1035D000216920F0F80040EAC10028602BE0FFF7E5
:1035E0006FF8A0EB0800022802D90320BDE8F88F8D
:1035F000286810F0020FF2D02868216920F0F80046
:1036000040EAC100286016E0FFE7C7F80090FFF726
:1036100057F88046286810F0020F0CD0FFF750F8DA
:10362000A0EB0800022802D90320BDE8F88F286823
:1036300010F0020FF2D1207810F0080F35D0984822
:10364000DFF860A26169C1B101210160FFF738F8BC
:103650008046DAF8000010F0020F26D1FFF730F8AC
:10366000A0EB0800022802D90320BDE8F88FDAF8A1
:10367000000010F0020FF1D017E0C0F80090FFF743
:103680001FF88046DAF8000010F0020F0DD0FFF7A7
:1036900017F8A0EB0800022802D90320BDE8F88F34
:1036A000DAF8000010F0020FF1D1207810F0040FCA
:1036B00071D04FF000087C48006810F0805F0AD19C
:1036C0007948016841F080510160006800F0805045
:1036D00000904FF00108DFF8D4B1DBF8000010F4DF
:1036E000807F1BD1DBF8000040F48070CBF8000035
:1036F000FEF7E6FF8246DBF8000010F4807F0DD174
:10370000FEF7DEFFA0EB0A00022802D90320BDE885
:10371000F88FDBF8000010F4807FF1D0A068DFF8AC
:1037200090B1012818D005281DD0DBF8000020F04A
:103730000100CBF80000DBF8000020F00400CBF81B
:103740000000A06840B3FEF7BBFF8246DBF8000034
:1037500010F0020F14D03EE0DBF8000040F0010052
:10376000CBF80000EDE7DBF8000040F00400CBF8F8
:103770000000DBF8000040F00100CBF80000E0E7BB
:10378000FEF79EFFA0EB0A0141F28830814204D986
:103790000320BDE8F88F26E005E0DBF8000010F01C
:1037A000020FEDD017E0FEF78BFF8246DBF800003A
:1037B00010F0020F0FD0FEF783FFA0EB0A0141F2D9
:1037C0008830814202D90320BDE8F88FDBF8000081
:1037D00010F0020FEFD1B8F1010F04D132480168A7
:1037E00021F080510160A069F0B32C4909684FF0C5
:1037F000FF3801F00C01082966D0022810D0C7F864
:103800006090FEF75DFF0446286810F0007F2BD023
:10381000FEF756FF001B022851D90320BDE8F88FA0
:10382000C7F86090FEF74CFF8146286810F0007FD3
:103830000CD0FEF745FFA0EB0900022802D90320B7
:10384000BDE8F88F286810F0007FF2D1216AE069A6
:10385000A26A0843616A08EB5202890141EA024107
:10386000084394F82C1000E055E040EA0160306015
:1038700001203866FEF724FF0446286810F0007F18
:1038800049D1FEF71DFF001B022813D90320BDE814
:10389000F88F000004380240000047420838024018
:1038A000800E4742743802404038024000700040A9
:1038B00070380240286810F0007FE2D02BE02868C2
:1038C00010F0007FA4D126E0012822D03068E26900
:1038D00000F4800191421AD1226A00F03F01914226
:1038E00015D147F6C071626A0140B1EB821F0ED15B
:1038F000A26A00F4403108EB5202B1EB024F06D14C
:1039000094F82C1000F07060B0EB016F03D0012030
:10391000BDE70120BBE70020B9E770B50446002CE5
:1039200009D0606A002540B125616561A56294F8FF
:10393000510040B10CE0012070BD6068B0F5827F9D
:10394000F4D0E561F2E784F85050204600F044F8E6
:10395000022084F851002068016821F040010160D4
:10396000A088218900F4827001F404410843A189F0
:1039700001F400610843217C01F002010843217D2C
:1039800001F001010843218B01F400710843217FFC
:1039900001F03801084394F8201001F08001084339
:1039A000218D01F40051084321680860A1690420B9
:1039B00000EA114094F8241001F01001014320683E
:1039C00041602068C16921F40061C1616565012021
:1039D00084F85100002070BD10B586B00446142153
:1039E00001A8FCF717FE1B49206888422FD100BFB1
:1039F000002000901848006840F480501649086084
:103A00000846006800F48050009000BF00BF00BF6F
:103A10000020009010481438006840F001000E4962
:103A2000143908600846006800F00100009000BFEB
:103A300000BFE020019002200290002003900320AC
:103A400004900520059001A90448FEF711FD06B079
:103A500010BD000000300140443802400000024028
:103A60007047704710B50446002C03D094F83D0011
:103A700010B107E0012010BD002084F83C00204672
:103A800000F01EF8022084F83D00211D206802F09D
:103A9000A5FC012084F8460084F83E0084F83F002D
:103AA00084F8400084F8410084F8420084F8430020
:103AB00084F8440084F8450084F83D00002010BDDF
:103AC000704790F83D10012901D001207047022174
:103AD00080F83D100168CA6842F00102CA600068BF
:103AE000A0F18041B1F5803126D0B0F1804F23D0D4
:103AF000A0F18041B1F580611ED0A0F18041B1F507
:103B0000006119D0A0F18041B1F5406114D0A0F15D
:103B10008041B1F582310FD0A0F18041B1F5A031E3
:103B20000AD0A0F18041B1F5C05105D0016841F043
:103B30000101016000207047816801F0070106293A
:103B4000F8D0016841F001010160F3E7704770B5FA
:103B50000446206801694FF0000511F0020F17D0EC
:103B6000C16811F0020F13D0E91E01610120207716
:103B70002068806910F0030F03D02046FFF7E6FFAE
:103B800005E0204600F09DF8204600F09BF82577E0
:103B90002068016911F0040F18D0C16811F0040FFA
:103BA00014D06FF004010161022020772068806941
:103BB00010F4407F03D02046FFF7C8FF05E0204601
:103BC00000F07FF8204600F07DF825772068016935
:103BD00011F0080F18D0C16811F0080F14D06FF061
:103BE00008010161042020772068C06910F0030FEC
:103BF00003D02046FFF7AAFF05E0204600F061F859
:103C0000204600F05FF825772068016911F0100F59
:103C100018D0C16811F0100F14D06FF010010161BD
:103C2000082020772068C06910F4407F03D0204628
:103C3000FFF78CFF05E0204600F043F8204600F037
:103C400041F825772068016911F0010F09D0C1689A
:103C500011F0010F05D06FF001010161204600F065
:103C600033F82068016911F0800F09D0C16811F0A4
:103C7000800F05D06FF0800101612046FFF7F0FE54
:103C80002068016911F0400F09D0C16811F0400FA0
:103C900005D06FF040010161204600F021F8206856
:103CA000016911F0200F0BD0C16811F0200F07D06F
:103CB0006FF0200101612046BDE87040FFF7D1BEE2
:103CC00070BD70477047000010B504460349206876
:103CD000884201D1FEF7FAFC10BD0000001400403C
:103CE0007047000010B54FF47A720649064800F09C
:103CF00027F806480068006820F0080003490968B2
:103D0000086010BDD50B00204007002044080020AB
:103D100010B564220249034800F043F810BD0000CA
:103D2000BD0F00207406002010B51E220249034872
:103D300000F037F810BD0000B70B0020300600205F
:103D400038B5044694F83E00202801D0022038BD42
:103D500071B16AB194F83C0001280BD0012084F8BD
:103D60003C002063204602F047FD034623B107E0F4
:103D7000012038BD022038BD206B012802D001236C
:103D8000184638BD206801684068009020680C30F3
:103D900050E8001F41F0100140E80012002AF5D160
:103DA000EEE708B5034693F83E00202801D0022034
:103DB00008BD81B17AB193F83C0001280DD00120F3
:103DC00083F83C001863184602F060FD8446BCF19D
:103DD000000F04D008E0012008BD022008BD186BC8
:103DE000012803D04FF0010C604608BD1868016837
:103DF0004068009018680C3050E8001F41F0100136
:103E000040E80012002AF5D1EEE7000070B5044644
:103E10000D46624884420AD101206149087009F0C8
:103E2000D9F900215F4A10605160FFF771FF5E48C9
:103E3000844216D109F0CEF900215C4A03C25C48E5
:103E4000007828445A4908705A480078022800D15E
:103E500000BF5948007828B12A465849584800F010
:103E6000D9FB83E055480078242802D10120554928
:103E700008705448007800286DD05348007878BB0B
:103E80004E48407806281AD006DC01280BD00228BC
:103E90000DD0052823D10EE007281CD0FE2816D00F
:103EA000FF281CD10FE004204749087017E00E20BE
:103EB0004549087013E00420434908700FE00C20C6
:103EC000414908700BE005203F49087007E00520D4
:103ED0003D49087003E004203B49087000BF00BF63
:103EE0003948007828B900203649087031490870EF
:103EF00070BD00200BE031490B5C2E490A7809782F
:103F0000491C2C4E317031498B54411CC8B2A84217
:103F1000F1DB284801782C480078401C81420CD104
:103F200001202B4908702B480078401C2949087053
:103F3000002025490870234908701E48017822484E
:103F40000078401C814206DD00201F4908701D4991
:103F50000870184908702048007818B12946174899
:103F6000FCF75EFF1548407C00B100BF1448844256
:103F700010D11A48007818B129461948FCF750FFAB
:103F80000D48007820B12A461549074800F042FB49
:103F9000FFF7A8FEFFF7C8FE00BFA9E774060020E0
:103FA000210100205001002030060020880100205F
:103FB000820100209D00002063000020B70B00203C
:103FC00040070020810100208001002020110020F6
:103FD000F70000209E000020620000206100002009
:103FE000D50B002070470000F8B504462268106821
:103FF000D168536900F00F0CBCF1000F0AD110F02A
:10400000200F07D011F0200F04D02046BDE8F84063
:1040100002F010BB0025BCF1000F75D003F0010CBD
:1040200001F490765CEA06066ED010F0010F06D01F
:1040300011F4807F03D0226C42F00102226410F060
:10404000040F06D013F0010F03D0226C42F00202DD
:10405000226410F0020F06D013F0010F03D0226C7F
:1040600042F00402226410F0080F08D001F0200290
:1040700052EA0C0203D0226C42F008022264226C45
:10408000002A35D010F0200F05D011F0200F02D0FB
:10409000204602F0CFFA20684069C0F38010216CFE
:1040A00011F0080F00D148B3204602F081FA2068D1
:1040B000406910F0400F1CD02068143050E8001FF9
:1040C00021F0400140E80012002AF5D1A06B60B158
:1040D0005C490165A06BFEF700F8002808D0A06BD2
:1040E000016D01B0BDE8F04008472046FFF77AFFB8
:1040F000F8BD2046FFF776FFF8BD05E0FFE7204654
:10410000FFF770FF2564F8BD236B012B7ED110F003
:10411000100F7BD011F0100F7ED010685068009007
:1041200050694FF0200310F0400F43D0A16B086896
:10413000406880B20028E6D0A28D8242E3D9E085B3
:10414000C869B0F5807F2DD020680C3050E8001F82
:1041500021F4807140E80012002AF5D12068143063
:1041600050E8001F21F0010140E80012002AF5D1BB
:104170002068143050E8001F21F0400140E8001290
:10418000002AF5D184F83E30256320680C3050E8D1
:10419000001F21F0100140E80012002AF5D1A06BA9
:1041A000FDF74AFFA08DE18D401A81B22046FFF74E
:1041B0002DFEF8BDA08DE18D401A81B2E08D002862
:1041C000F7D00029F5D020680C3050E8002F22F4F9
:1041D000907240E8002CBCF1000FF4D1206814303C
:1041E00050E8002F22F0010240E8002CBCF1000F43
:1041F000F4D184F83E30256320680C3050E8002F5D
:1042000022F0100240E80023002B00E004E0F3D18C
:104210002046FFF7FBFDF8BD10F0800F07D011F02E
:10422000800F04D02046BDE8F84002F04ABB10F0F1
:10423000400FF0D011F0400FEDD02046BDE8F8401F
:1042400002F0DDB9B964000870B50446002C04D052
:1042500094F83D00002510B106E0012070BD84F8FF
:104260003C50204600F022F8242084F83D002068CD
:10427000C16821F40051C160204602F03FFA206875
:10428000016921F4904101612068416921F02A010E
:1042900041612068C16841F40051C160256420205B
:1042A00084F83D0084F83E00002070BD10B586B053
:1042B0000446142101A8FCF7ADF9C74920688842DB
:1042C00038D100BF00200090C448006840F40020AE
:1042D000C24908600846006800F40020009000BF52
:1042E00000BF00BF00200090BC481038006840F0BC
:1042F0000100BA49103908600846006800F0010062
:10430000009000BF00BF0320019002200290002017
:104310000390032004900820059001A9B048FEF7FF
:10432000A7F8002205213420FEF770FA3420FEF7AA
:104330005FFA4FE1AB492068884258D100BF0020A6
:104340000090A648001D006840F01000A349091D18
:1043500008600846006800F01000009000BF00BF31
:1043600000BF002000909D481038006840F0010018
:104370009A49103908600846006800F00100009072
:1043800000BF00BF4FF4C0600190022002900020E7
:104390000390032004900720059001A99048FEF7A0
:1043A00067F89148914908604FF00060486000212B
:1043B0008E488160C1604FF48061016100214161DC
:1043C0008161C16101624162FDF790FF08B1FCF7B4
:1043D000CBFD00BF8548A063846300BF0022052198
:1043E0002520FEF713FA2520FEF702FAF2E08049B5
:1043F0002068884255D100BF0020009077480068AF
:1044000040F40030754908600846006800F4003048
:10441000009000BF00BF00BF002000906F48103820
:10442000006840F001006D491039086008460068D6
:1044300000F00100009000BF00BF0C20019002209E
:10444000029000200390032004900720059001A90A
:104450006348FEF70DF86748674908604FF0006051
:104460004860002164488160C1604FF4806101614F
:10447000002141618161C16101624162FDF736FF46
:1044800008B1FCF771FD00BF5B48A063846300BF07
:10449000002205212620FEF7B9F92620FEF7A8F90B
:1044A00098E056492068884239D100BF002000902A
:1044B0004A48006840F4802048490860084600687F
:1044C00000F48020009000BF00BF00BF00200090DB
:1044D00042481038006840F0020040491039086036
:1044E0000846006800F00200009000BF00BF4FF4D3
:1044F000406001900220029000200390032004906D
:104500000720059001A93E48FDF7B2FF00220521D2
:104510002720FEF77BF92720FEF76AF95AE0394990
:104520002068884256D100BF002000902B48001D13
:10453000006840F020002949091D0860084600680D
:1045400000F02000009000BF00BF00BF00200090DE
:1045500022481038006840F00400204910390860F3
:104560000846006800F00400009000BF00BFC020B3
:104570000190022002900020039003200490082064
:10458000059001A92048FDF773FF174818381F4907
:1045900008608005486000211C488160C1604FF4BC
:1045A00080610161002141618161C16101624162FB
:1045B000FDF79CFE08B1FCF7D7FC00BF1348A063D1
:1045C000846300BF002205214720FEF71FF9472022
:1045D000FEF70EF906B010BD004C00404038024016
:1045E00000000240001001404064024084070020A7
:1045F0000044004088600240E4070020004800407A
:104600000004024000140140000802404408002059
:104610007047704790F83D30202B01D00220704742
:10462000A9B1A2B190F83C30012B12D00162828472
:10463000C28400210164212280F83D2080F83C10D2
:104640000068C16841F08001C1600020704701200E
:1046500070470220704700000449884204D10121BC
:10466000034A1170034A11707047000030060020A1
:1046700038030020F102002000BFFEE7F0B4002361
:10468000002A18D90A24302537269C46B4EB107F1F
:1046900004D905EB107701F8137003E006EB1077EF
:1046A00001F81370000101EB430787F801C05B1CA0
:1046B000DBB29342EAD3F0BC7047000010B51D484E
:1046C0001D4908600C20486000211B488160C160C2
:1046D0004FF4202101614FF48011416100210176E6
:1046E0000121417600218176C17601770121417750
:1046F000FDF703F808B1FCF737FC00200F494861CB
:1047000088610120C8610020086048608860C86036
:104710000861012008620848FCF782FD08B1FCF737
:1047200023FC0548FDF74FFC48F602410248FCF720
:10473000E3FC10BD0064004060050020B0050020CF
:1047400010B51E481E4908600A20486000211C4818
:104750008160C1604FF4402101614FF480114161DB
:10476000002101760121417600218176C176017711
:1047700001214177FCF7C1FF08B1FCF7F5FB0E20E2
:1047800010494861002088610120C861002008604C
:1047900048608860C8600861012008620E20486295
:1047A0000748FCF73DFD08B1FCF7DEFB0448FDF7C8
:1047B0000AFC02210248FCF79FFC10BD0068004083
:1047C00088050020B005002008B500BF002000903B
:1047D0001A48006840F480001849086008460068DC
:1047E00000F48000009000BF00BF00BF00200090D8
:1047F0000846006840F4001008600846006800F4AD
:104800000010009000BF00BF002205211020FDF71E
:10481000FDFF1020FDF7ECFF002205213920FDF7F8
:10482000F5FF3920FDF7E4FF002205213A20FDF7CE
:10483000EDFF3A20FDF7DCFF08BD000030380240F4
:1048400000B587B0142102A8FBF7E4FE00BF0020EA
:1048500001904E48006840F010004C49086008463E
:10486000006800F01000019000BF00BF00BF0020F2
:1048700001900846006840F0800008600846006823
:1048800000F08000019000BF00BF00BF0020019039
:104890000846006840F0010008600846006800F023
:1048A0000100019000BF00BF00BF0020019008463A
:1048B000006840F0040008600846006800F004004A
:1048C000019000BF00BF00BF0020019008460068B3
:1048D00040F0020008600846006800F00200019005
:1048E00000BF00BF00BF002001900846006840F0F4
:1048F000080008600846006800F00800019000BF4A
:1049000000BF00221C212248FDF7D2FE0022102108
:104910002048FDF7CDFE00224FF488711E48FDF7B8
:10492000C7FE002218211D48FDF7C2FE1C20029080
:104930000120039000200490059002A91448FDF77F
:1049400097FD102002900120039000200490059014
:1049500002A91048FDF78CFD4FF4887002900120E9
:10496000039000200490059002A90B48FDF780FDFC
:10497000182002900120039000200490059002A9C5
:104980000648FDF775FD07B000BD00003038024055
:10499000001002400000024000080240000C0240EB
:1049A00010B50E480E4908604FF48270486000212F
:1049B0000B488160C160016141614FF40071816108
:1049C0000021C1610162416281620A21C162FEF778
:1049D000A4FF08B1FCF7C8FA10BD00000030014088
:1049E000D805002010B50B480B4908604FF49640DD
:1049F0004860002108488160C16001610C2141616B
:104A000000218161C161FFF71FFC08B1FCF7ACFA1E
:104A100010BD0000004C0040FC06002010B50B4803
:104A20000B4908604FF496404860002108488160B7
:104A3000C16001610C21416100218161C161FFF709
:104A400003FC08B1FCF790FA10BD00000010014013
:104A50003006002010B50B480B4908604FF4E130D8
:104A60004860002108488160C16001610C214161FA
:104A700000218161C161FFF7E7FB08B1FCF774FA1F
:104A800010BD0000004400407406002010B50B4823
:104A90000B4908604FF49640486000210848816047
:104AA000C16001610C21416100218161C161FFF799
:104AB000CBFB08B1FCF758FA10BD000000480040DD
:104AC000B806002010B50B480B4908604FF4E130E0
:104AD0004860002108488160C16001610C2141618A
:104AE00000218161C161FFF7AFFB08B1FCF73CFA1F
:104AF00010BD0000001401404007002010B5002246
:104B00000F49104802F031FB08B1FCF72DFA0E49AD
:104B10000C4802F035FD08B1FCF726FA0B490948AC
:104B200002F039F808B1FCF71FFA064802F0E6FD7A
:104B3000002803D0BDE81040FCF716BA10BD0000F5
:104B4000440300207014002028050020A803002042
:104B500000BFFEE700BFFEE710B50248FDF7EBFF20
:104B600010BD0000482F002070B504462068056C79
:104B700000EB4110D0F8081B0C4EB54206D911F4D9
:104B8000004F03D04FF40041C0F8081B2046FEF749
:104B90000AFBB54208D92069012805D104F57172D4
:104BA0000121206803F0C2F9002070BD0A30544F83
:104BB0002DE9F04104460D4623681A6C03EB4511BC
:104BC000D1F8080B276920264FF4004C012F08D09C
:104BD000304FBA424DD110F4004F40D0C1F808CB4D
:104BE00055E02D4B10F0080F07D09A424FD910F422
:104BF000004F4CD0C1F808CB49E010F0200F02D094
:104C0000C1F8086B43E010F0280F40D19A4205D953
:104C100010F4004F02D0C1F808CB38E0C5EBC50056
:104C200004EB8000D1F8101BD0F80422C1F312016C
:104C3000511AC0F81412D0F808121144C0F8081222
:104C400045B9D4F8100228B904F571720121206821
:104C500003F06CF9E9B22046FDF755FE17E010F0BD
:104C6000200F01D0C1F8086BE9B22046FDF74BFEDA
:104C70000DE045B9D4F8100228B904F5717200218D
:104C8000184603F053F9E9B22046FDF73CFE002038
:104C9000BDE8F0810A31544F0A30544F2DE9F84FE6
:104CA00007460E46D7F80080C6EBC60007EB80002B
:104CB00000F13C046169A069884202D90120BDE885
:104CC000F88F081AA168814200D20846C01C4FEA3A
:104CD000900A08EB461915E0151AA268AA4200D2FC
:104CE0001546E81C4FEA900A387C0090ABB2F2B24D
:104CF0004046E16803F018FCE0682844E060A069E1
:104D00002844A061D9F8180980B2504505D36269DA
:104D1000A069904201D2002ADED1A169606988426F
:104D20000AD806F00F00012101FA00F0D8F8341873
:104D300021EA0000C8F834080020BDE8F88F000020
:104D40002DE9FC4104460026A578E778122D00D114
:104D500000BF124840EA052040EA074620798DF856
:104D6000000060798DF80100A0798DF80200E079EB
:104D70008DF80300207A8DF80400607A8DF8050024
:104D8000A07A8DF80600E07A8DF807003246694671
:104D90000348FBF781FFBDE8FC8100000300001819
:104DA00060050020704770472DE9F04F2DED068B10
:104DB0009BB004460025E0780A2190FBF1F201FB4C
:104DC0001200C6B29FED750BB0EE408AF0EE608A1D
:104DD0009FED720BB0EE409AF0EE609A20790021C0
:104DE000CDE90C016079CDE90E01A079CDE9100182
:104DF000E079CDE91201207ACDE91401607ACDE99C
:104E00000201A07ACDE90401E07ACDE90601207B18
:104E1000CDE90801607BCDE90A01A078012800D125
:104E20000127A078022800D10227012F56D10025A2
:104E300029E00CA800EBC500EA00D0E90089404653
:104E40004946FBF724FBCDE9000108F067FE53EC6F
:104E5000182B08F0B9FB41EC180B02A800EBC500B9
:104E6000EA00D0E900AB50465946FBF710FBCDE90C
:104E7000000108F053FE53EC192B08F0A5FB41ECA0
:104E8000190B681CC5B2042DD3DD9FED460B53EC06
:104E9000102B51EC180B08F053FC41EC1A0B9FED52
:104EA000430B53EC102B09F0C7F8424A02EB0612F1
:104EB00003C29FED3C0B53EC102B51EC190B08F087
:104EC0003FFC41EC1A0B9FED3C0B53EC102B09F00F
:104ED000B3F8384A02EB0612C2E90201022F57D199
:104EE00000252AE00CA800EBC50103C9EA00CDE9C2
:104EF0001810FBF7CCFACDE9000108F00FFE53ECD7
:104F0000182B08F061FB41EC180B02A800EBC50060
:104F1000D0E90010EA00CDE9160108461699FBF722
:104F2000B6FACDE9000108F0F9FD53EC192B08F0B1
:104F30004BFB41EC190B681CC5B2042DD2DD9FED73
:104F4000190B53EC102B51EC180B08F0F9FB41EC4A
:104F50001A0B9FED160B53EC102B09F06DF8184A45
:104F600002EB061203C29FED0F0B53EC102B51EC1A
:104F7000190B08F0E5FB41EC1A0B9FED0F0B53ECFE
:104F8000102B09F059F80E4A02EB0612C2E9020191
:104F90001BB0BDEC068BBDE8F08F000000000000E8
:104FA000000000000000000084D7974100000000CE
:104FB000008056408009002000000000008066400C
:104FC000200A002010B50446A07801280FD1E0780F
:104FD0000749087008460078012808D108F0FAF857
:104FE0000021044A10605160034A1160516010BDF5
:104FF0009F000020B0010020B801002070B52DED09
:10500000048B00243DE2F848005D0D287ED100208D
:10501000F6490870F64805F05FFCF6490860F44868
:105020000A3005F059FCF4490860F148173005F0E2
:1050300053FCF2490860EE48213005F04DFCF04980
:105040000860EB48513005F047FCEE4A03C2ED48DA
:10505000D0E90020EC4BD21A70F1FF3004DA99133A
:105060000020E84AC2E90010E24800686421B0FB71
:10507000F1F0E6490860DF4800686421B0FBF1F216
:1050800001FB1205284608F035FDE14A03C2E1485C
:10509000006808F02FFD41EC180BD748006808F0B5
:1050A00029FD53EC182B08F04BFBDB4A03C2DA480E
:1050B00090ED000B53EC102BD54890ED000B51EC0C
:1050C000100B08F081FA9FEDD50B53EC102B08F074
:1050D00037FBD44A03C2CD48006808F00BFD41EC11
:1050E000180BD04890ED000B53EC102B51EC180B23
:1050F00008F06AFACC4A03C2C04800686421B0FBD9
:10510000F1F0CA490860BD48006800E0C1E06421D0
:10511000B0FBF1F201FB1205284608F0EBFCC44A93
:1051200003C2C448006808F0E5FC41EC180BB44821
:10513000006808F0DFFC53EC182B08F001FBBE4AB6
:1051400003C2BD4890ED000B53EC102BB84890ED16
:10515000000B51EC100B08F037FA9FEDB00B53EC3D
:10516000102B08F0EDFAB54A03C2B048006808F009
:10517000C1FC41EC180BB14890ED000B53EC102B27
:1051800051EC180B08F020FAAD4A03C2A64890ED86
:10519000000BAC4880ED000BA94890ED000BAA482D
:1051A00080ED000B0420A9490870964800784870EB
:1051B0009448018800794FF47F4211400020020694
:1051C00042EA1120A14988708E48016800794FF4A5
:1051D0007F0319400020020442EA11409B49C87035
:1051E0008848016800791B0219400020020242EA47
:1051F0001160964908717E480F3890F83E0048715A
:105200007B480F3890F8490088710020C87124202D
:105210008F4981F86800A02081F86900102081F88A
:105220006A00052081F86B00002007E087490A5CCE
:1052300000F16C01864B5A54411CC8B20828F5DBBA
:105240000B218348693005F0CEFB814981F8740059
:1052500014216748513005F0BBFB0C2164480A302B
:1052600005F0B6FB0A21624805F0B2FB0A2160484E
:10527000173005F0ADFB0C215D48213005F0A8FB8F
:105280000120644908606B4908606421564805F0B4
:105290009FFB5548005D2C2874D0544800780A289C
:1052A00011D2DFE800F0A005113C4370777EA08AA0
:1052B0004D48015D674802680068401C654B1860F6
:1052C0004B480F3881548EE06348007850B9464807
:1052D000015D604802680068401C5E4B18604448ED
:1052E000815411E04048015D5A4802680068401C42
:1052F000584B18603E480A3081544648006800EB1D
:1053000080004000434908603748005D2E2805D1E1
:1053100001205149087000204E49086063E032487E
:10532000005D33490F3981F825005CE04A48007878
:1053300058B92D48015D474802680068401C454B3C
:1053400018602B481730815411E02748015D41480F
:1053500002680068401C3F4B18602548213081548A
:105360003448006800EB80004000324908601E4865
:10537000005D2E2805D101203749087000203549ED
:10538000086030E06CE01848005D19490F3981F879
:105390003C0028E01448005D15490F3981F83D00B4
:1053A00021E01148015D2B4802680068401C294B30
:1053B00018600F483030815415E00B48015D2748D4
:1053C00002680068401C254B186009485130815420
:1053D0000548005D2E2805D101201F4908700020D6
:1053E0001C49086000BF4AE0BD0F0020CC0100202E
:1053F0001B090020D8010020E0010020DC01002072
:10540000E4010020D0010020F0D8FFFFE8010020D7
:10541000F001002010020020F80100200000000030
:1054200000004E400002002008020020140200206C
:10543000180200203802002020020020280200204C
:1054400030020020A8000020B000002075000020DD
:10545000C00A0020C4010020CD010020C8010020A6
:105460000C48007858B10C480078401C0A49087074
:1054700000200A4908700A4908600A490860601C4F
:1054800084B20948FBF75AF8A0423FF6BCADBDEC28
:10549000048B70BD21010020CC010020CD01002033
:1054A000C4010020C8010020BD0F002010B5044633
:1054B0002079092828D2DFE800F0050B12271927E8
:1054C0002727200000207A4908707A49087021E0D7
:1054D0000820774908700020764908701AE01020EB
:1054E0007349087000207349087013E00020704968
:1054F000087008206F4908700CE000206C490870A3
:1055000010206C49087005E000206949087069495D
:10551000087000BF00BFA079642805D1002066494B
:1055200008706649087018E0A07964280ADDA0793F
:1055300064386149087008460078C0F1FF005F498F
:1055400008700AE0A079C0F164005C490870084660
:105550000078C0F1FF00584908706079642805D1CF
:105560000020574908705749087018E0607964288E
:105570000ADD607964385249087008460078C0F145
:10558000FF00504908700AE06079C0F164004D499D
:10559000087008460078C0F1FF0049490870207A79
:1055A000642805D10020484908704849087018E06F
:1055B000207A64280ADD207A643843490870084656
:1055C0000078C0F1FF00414908700AE0207AC0F17C
:1055D00064003E49087008460078C0F1FF003A496F
:1055E0000870E079642805D10020394908703949EC
:1055F000087018E0E07964280ADDE07964383449FD
:10560000087008460078C0F1FF00324908700AE0CF
:10561000E079C0F164002F49087008460078C0F1B5
:10562000FF002B490870607A2B4908700846007803
:10563000FF2801DBFF200870FF2028490870487010
:10564000887025480078C870FF20087148710020D4
:1056500088710120C8710020214908704870887045
:10566000C870087148718871A07AF82808D10120A3
:105670001C490870F1201A49C87101201A490870A4
:10568000A07A40B9002017490870F0201449C87169
:1056900001201549087007F09DFD0021134A106094
:1056A0005160134A1160516001201249087010BD09
:1056B000A9010020AA010020A1010020A2010020D0
:1056C000A3010020A4010020A5010020A6010020C4
:1056D000A7010020A8010020AB0100208D000020C0
:1056E00095000020AC010020AD010020B001002099
:1056F000B8010020F500002000218278012A00D1A5
:1057000001218278022A00D10221012902D1C27826
:10571000034B1A70022902D1C278024B1A707047EB
:10572000A0000020A10000200FB470B504460C9D1D
:10573000079820B929462046059AFBF7ADFA079845
:10574000042804D129462046069AFBF7A5FA70BC26
:105750005DF814FB00B585B0A0208DF80100002392
:105760005A1E69460248006807F0C4FA05B000BD39
:10577000240000202DE9F0472DED068B88B09FED29
:10578000661B9FED670B03F057FBB0EE409AF0EEFF
:10579000609A9FED650B53EC102B654890ED000B64
:1057A00051EC100B07F010FF53EC192B08F038FAEE
:1057B00008F0ACFD804689469FED571B9FED580BC6
:1057C00003F03AFBB0EE409AF0EE609A9FED590B71
:1057D00053EC102B594890ED000B51EC100B07F0D7
:1057E000F3FE53EC192B08F01BFA08F08FFDCDE9FE
:1057F000000124208DF8080012208DF809004FF0D8
:10580000000A0FE04FEACA0244464D4620462946A8
:10581000FAF750FEC1B202AA0AF102001154401E6A
:1058200000F0FF0ABAF1040FECDD4FF0000A0FE0C0
:105830004FEACA02DDE9006730463946FAF73AFE18
:10584000C1B202AA0AF107001154801F00F0FF0A3A
:10585000BAF1040FECDD3A4890ED000B51EC100B5F
:1058600007F080FE08EE100AB0EE480A04F00CF9CA
:10587000BCEEC00A10EE100AC0B28DF81400304819
:1058800090ED000B51EC100B07F06CFE08EE100AC7
:10589000B0EE480A04F0F8F8BCEEC00A10EE100AA8
:1058A000000A8DF81500274991F83D0005F07EF8B3
:1058B0008DF8160023483F3005F00EF8C0B28DF881
:1058C0001700214800788DF8180010210DF109000B
:1058D00005F089F88DF819001C480078401C1B4918
:1058E000087008460078032803D108460078401C59
:1058F000087016480078052802DD0020134908705A
:1059000000235A1E02A91248006807F0F3F908B0F4
:10591000BDEC068BBDE8F0870000000000002040D1
:1059200000000000000024400000000000805640FD
:10593000A80000200000000000806640B0000020A9
:10594000D80000200C0900209F000020A0010020AA
:105950002400002000201749087048708870C87023
:10596000FF200871002048718871FF20C871002055
:105970001149087048708870C870FF2008710020B5
:1059800048718871FF20C8719FED0C0A0C4880EDAA
:10599000000AFF200B490870487088700A48007898
:1059A000C870FF2008714871002088710120C871FB
:1059B000704700007D0000208500002000000000EE
:1059C000F00000208D000020AB010020642800DDE5
:1059D000642010F1640F01DA6FF06300642900DDC8
:1059E000642111F1640F01DA6FF06301002807DD13
:1059F000184B58701A465278C2F1FF02DA700EE066
:105A0000002808DA4242134BDA701A46D278C2F103
:105A1000FF025A7003E000220E4B5A70DA70002920
:105A200007DD0C4B19701A461278C2F1FF029A700A
:105A30000EE0002908DA4A42064B9A701A4692781C
:105A4000C2F1FF021A7003E00022024B9A701A7032
:105A5000704700007D000020642800DD642010F104
:105A6000640F01DA6FF06300642900DD642111F135
:105A7000640F01DA6FF06301002807DD184B5870DE
:105A80001A465278C2F1FF02DA700EE0002808DAF6
:105A90004242134BDA701A46D278C2F1FF025A70B2
:105AA00003E000220E4B5A70DA70002907DD0C4B20
:105AB00019701A461278C2F1FF029A700EE000299E
:105AC00008DA4A42064B9A701A469278C2F1FF02EF
:105AD0001A7003E00022024B9A701A70704700009F
