:020000040800F2
:100000004083002061030008394B00085D4600086A
:10001000354B0008750C0008CD8300080000000077
:100020000000000000000000000000006D02000859
:10003000670F000800000000C90200085D610008A9
:100040007B0300087B0300087B0300087B03000898
:100050007B0300087B0300087B0300087B03000888
:100060007B0300087B0300087B0300087B03000878
:100070007B0300087B0300087B0300087B03000868
:100080004D0E00087B0300087B0300087B0300087B
:10009000790C00087B0300087B0300087B03000841
:1000A0007B0300087B0300087B0300087B03000838
:1000B0007B0300087B0300087B0300087B03000828
:1000C0007B0300087B0300087B0300087B03000818
:1000D0007B03000891670008A1670008B16700086A
:1000E0007B0300087B0300087B0300087B030008F8
:1000F0007B0300087B0300087B0300087B030008E8
:100100007B0300087B0300087B0300087B030008D7
:10011000196300087B0300087B0300083D620008A8
:100120007B0300085D0E00086D0E00087B030008CD
:100130007B0300087B0300087B0300087B030008A7
:10014000890C00087B0300087B0300083D4B000876
:100150007B0300087B0300087B030008C1670008DD
:100160007B0300087B0300087B0300087B03000877
:100170007B0300087B0300087B03000800000000ED
:100180007B0300087B03000800F002F800F05EF833
:100190000AA090E8000C82448344AAF10107DA45E2
:1001A00001D100F053F8AFF2090EBAE80F0013F0D6
:1001B000010F18BFFB1A43F00103184774E4000055
:1001C00094E400000A444FF0000C10F8013B13F0D7
:1001D000070408BF10F8014B1D1108BF10F8015BA0
:1001E000641E05D010F8016B641E01F8016BF9D193
:1001F00013F0080F1EBF10F8014BAD1C0C1B09D1EA
:100200006D1E58BF01F801CBFAD505E014F8016B5B
:1002100001F8016B6D1EF9D59142D6D370470000ED
:100220000023002400250026103A28BF78C1FBD8FF
:10023000520728BF30C148BF0B6070471FB50DF093
:1002400077FE00F060F91FBD10B510BD00F074FA24
:100250001146FFF7F3FF0AF00FFC00F092FA03B427
:10026000FFF7F2FF03BC00F095FA00002C4B196871
:100270000868B0E8F04F80F30988BFF36F8F4FF044
:10028000000080F3118870470000000008480068F3
:10029000006880F308884FF0000080F3148862B68D
:1002A00061B6BFF34F8FBFF36F8F00DF00BF00BF9A
:1002B00008ED00E0DFF80C00016841F47001016016
:1002C000704700BF88ED00E0EFF30980BFF36F8F48
:1002D000134B1A681EF0100F08BF20ED108A20E99A
:1002E000F04F106009B44FF0500080F31188BFF355
:1002F0004F8FBFF36F8F0CF0D3F94FF0000080F3F6
:10030000118809BC19680868B0E8F04F1EF0100F9A
:1003100008BFB0EC108A80F30988BFF36F8F704775
:10032000A4030020EFF30580704700000B49D1F8CB
:1003300000C04A685CF8043B1068184442F8040B9B
:100340008C4528BFA1F1DC0C8A4228BFA1F1DC0258
:10035000C1F800C04A6020F000407047D87C0020FF
:100360000948804709480047FEE7FEE7FEE7FEE749
:10037000FEE7FEE7FEE7FEE7FEE7FEE70448054985
:10038000054A064B704700002D62000889010008ED
:10039000407D002040830020407F0020407F0020DF
:1003A00053EA020C00F069802DE9F04B4FF0000693
:1003B000002B1FBFB3FA83F503FA05F424FA05F600
:1003C0005E4012BF1643B2FA82F502FA05F4C5F197
:1003D00020051EBF22FA05FC44EA0C04203556EA2B
:1003E000044C4FEA144418BF641C4FF000084FF04F
:1003F0000009904271EB030C39D3002919BFB1FAFF
:1004000081F701FA07F6B0FA80F700FA07F6C7F1AC
:1004100020071EBF20FA07FC46EA0C062037B6FB71
:10042000F4FCA7EB0507103F07F01F0BCBF12006EC
:100430000CFA0BFB2CFA06F644BFB3460026202F1D
:10044000A4BF5E464FF0000B5BEA060C08BF4FF0FE
:10045000010B19EB0B09ABFB027C48EB0608C01B38
:1004600006FB02CC0BFB03CC71EB0C01C1E70B4686
:10047000024641464846BDE8F08B13B54FF00000F8
:100480004FF00001AFF30080BDE81C407047B2F1AF
:1004900020030AD5C2F1200301FA02F120FA03F386
:1004A00000FA02F041EA0301704700FA03F14FF04D
:1004B00000007047B2F120030AD5C2F1200320FAF0
:1004C00002F001FA03F321FA02F140EA0300704757
:1004D00021FA03F04FF00001704700000B4910B5FE
:1004E000A1F17C020A4CC2E93712372106E000EB89
:1004F000104342F82130074B00FB03400B1EA1F1D3
:100500000101F4DC10BD0120E8E70000787C002048
:10051000E119D666CD0D010030B505460B462A46D9
:1005200013F8014B12F8010B08B1A042F8D01CB12E
:10053000002802D06D1CF1E7284630BD10B5431CE1
:1005400002E010F8011B71B18107FAD14FF00132BE
:1005500002C88C1A8C4314EAC211F9D0C01A0A06D8
:1005600003D0C01E10BDC01A10BD0A0401D0801EE9
:1005700010BD0902FCD0401E10BD032A40F230809D
:1005800010F0030C00F0158011F8013BBCF1020FD4
:10059000624498BF11F801CB00F8013B38BF11F855
:1005A000013BA2F1040298BF00F801CB38BF00F86C
:1005B000013B11F0030300F06280083AC0F00880AC
:1005C00051F8043B083A51F804CBA0E80810F5E7CD
:1005D000121D5CBF51F8043B40F8043BAFF30080B0
:1005E000D20724BF11F8013B11F801CB48BF11F825
:1005F000012B24BF00F8013B00F801CB48BF00F8F5
:10060000012B704702F0FF0343EA032242EA024251
:1006100000F069B84FF0000200B5134694469646C4
:10062000203922BFA0E80C50A0E80C50B1F1200105
:10063000BFF4F7AF090728BFA0E80C5048BF0CC0B3
:100640005DF804EB890028BF40F8042B08BF704711
:1006500048BF20F8022B11F0804F18BF00F8012B83
:10066000704770477047704710B500F05DF800683C
:1006700010BD10B5044600F057F8046010BD10B569
:10068000203AC0F00B80B1E81850203AA0E818508A
:10069000B1E81850A0E81850BFF4F5AF5FEA027C4B
:1006A00024BFB1E81850A0E8185044BF18C918C0BA
:1006B000BDE810405FEA827C24BF51F8043B40F85B
:1006C000043B08BF7047D20728BF31F8023B48BF40
:1006D00011F8012B28BF20F8023B48BF00F8012B7E
:1006E00070474FF000020429C0F0128010F0030C94
:1006F0003FF492AFCCF1040CBCF1020F18BF00F82C
:10070000012BA8BF20F8022BA1EB0C01FFF784BF3F
:100710005FEAC17C24BF00F8012B00F8012B48BF21
:1007200000F8012B7047000000487047E07C002073
:1007300000487047E07C00207546FFF7F9FFAE46A1
:1007400005006946534620F00700854618B020B5DD
:10075000FFF714FEBDE820404FF000064FF0000701
:100760004FF000084FF0000B21F00701AC46ACE859
:10077000C009ACE8C009ACE8C009ACE8C0098D46C6
:10078000704710B50446AFF300802046BDE8104026
:10079000FFF765BD01491820ABBEFEE72600020049
:1007A0007047000000B52DED108B91B0B0EE40AA5F
:1007B000F0EE60AAB0EE418AF0EE618AB0EE42BA85
:1007C000F0EE62BAB0EE439AF0EE639A9FEDFE0B44
:1007D00053EC102B51EC1A0B0DF06EF8FC4A03C2CF
:1007E0009FEDF90B53EC102B51EC180B0DF064F846
:1007F000F84A03C29FEDF40B53EC102B51EC1B0B8A
:100800000DF05AF8F44A03C29FEDEF0B53EC102B96
:1008100051EC190B0DF050F8F04A03C253EC182BB1
:1008200051EC190B0DF054FA41EC1D0BB0EE4D0AD2
:10083000F0EE6D0A08F048F8B0EE40CAF0EE60CA7B
:100840009FEDE70B53EC102B51EC1C0B0CF0F8FF59
:1008500007D853EC182B51EC190B0DF039FAE24A7A
:1008600003C253EC182B51EC190B0DF031FA41EC8B
:100870001C0B9FEDDE0B53EC102B0CF0E1FF0FD2A5
:1008800053EC192B9FEDDB0B51EC100B0CF0E8FC3B
:1008900041EC1C0B53EC182B0DF01AFAD24A03C290
:1008A00053EC182B51EC190B0DF012FA41EC1C0B08
:1008B0009FEDCB0B53EC102B0DF0FCF80FD253EC4B
:1008C000182B51EC190B0DF003FA41EC1C0B9FEDAA
:1008D000C90B53EC102B0DF0FBF9C34A03C29FED7B
:1008E000BA0B53EC102BC04890ED000B51EC100BE1
:1008F0000CF0E2FFC14A03C2C14890ED000B53EC7B
:10090000102B90ED000B51EC100B0CF0D5FF41ECCF
:100910001F0BBC4890ED000B53EC102B51EC1F0B40
:100920000CF05AFD41EC1E0BB64890ED000B53EC59
:10093000102B51EC1E0B0CF04FFD41EC1D0B9FEDED
:10094000B20B53EC102B0DF0EBF841EC1C0BB0EE9E
:100950004C0AF0EE6C0A09F083F8AD4880ED000B0C
:100960009FEDAC0B53EC102B90ED000B51EC100BEA
:100970000CF032FD41EC1C0B954890ED000B09F09A
:100980000BF8B0EE40FAF0EE60FAA14890ED000BE3
:1009900053EC102B51EC1F0B0CF08EFF41EC1E0B97
:1009A0009FED990B53EC102B0CF05AFCCDE9020192
:1009B000874890ED000B08F0EFFFB0EE40FAF0EE44
:1009C00060FA934890ED000B53EC102B51EC1F0B89
:1009D0000CF072FF41EC1E0B9FED8B0B53EC102BB8
:1009E0000DF09EF8CDE900019DED020B53EC102BAC
:1009F0009DED000B51EC100B0CF0EEFC41EC1D0BCF
:100A0000B0EE4C1AF0EE6C1AB0EE4D0AF0EE6D0A34
:100A100008F04AF98DED060B9FED7E0B53EC102B81
:100A20006B4890ED000B51EC100B0CF0D5FC41EC39
:100A30001D0B9FED7A0B53EC102B0CF011FC41ECCD
:100A40001C0BB0EE4C0AF0EE6C0A09F049F88DED83
:100A5000040B9DED060B53EC102B9DED040B51EC9C
:100A6000100B0CF029FFCDE908019DED080B07F0F4
:100A700037FF8DED0C0B9FED670B53EC102B64488B
:100A800090ED000B51EC100B0CF0A6FCCDE902012F
:100A9000514890ED000B08F07FFFB0EE40FAF0EE09
:100AA00060FA5B4890ED000B53EC102B51EC1F0BE0
:100AB0000CF002FF41EC1E0B9FED530B53EC102B7F
:100AC0000CF0CEFB41EC1C0B434890ED000B08F002
:100AD00063FFB0EE40FAF0EE60FA4D4890ED000B87
:100AE00053EC102B51EC1F0B0CF0E6FE41EC1E0BEF
:100AF0009FED450B53EC102B0DF012F841EC1D0B44
:100B000053EC1C2B0CF068FCCDE900019DED021BA1
:100B10009DED000B08F0C8F88DED060B9FED3D0B29
:100B200053EC102B2C4890ED000B51EC100B0CF0FB
:100B300053FC41EC1D0B9FED390B53EC102B0CF0CB
:100B40008FFB41EC1C0BB0EE4C0AF0EE6C0A08F087
:100B5000C7FF8DED040B9DED060B53EC102B9DEDA7
:100B6000040B51EC100B0CF0A7FECDE908019DED34
:100B7000080B07F0B5FE8DED0A0B9DED0C0B53EC49
:100B8000102B9DED0A0B51EC100B0DF0A1F8CDE9E7
:100B90000E019DED0E1B194890ED000B07F09CFD1A
:100BA000204880ED000B9FED200B53EC102B90EDB7
:100BB000000B51EC100B0CF07FFE1A4A03C29FEDA4
:100BC0001C0B53EC102B37E011DD52A246DF913F96
:100BD000780200208002002088020020900200207D
:100BE000000000000080664050020020000000006D
:100BF000008066C000000000008076407002002087
:100C00006802002060020020000000000000F03FA9
:100C1000580200200000000000000040EA2E44546A
:100C2000FB21E93F98020020B1C0631ADCA54C40CB
:100C300000000000000000000D4890ED000B51EC9A
:100C4000100B0CF0FDFD0CD2094890ED000B53EC9D
:100C5000102B1FED180B51EC100B0CF001FB044A8C
:100C600003C2034890ED000B11B0BDEC108B00BD2A
:100C70009802002000BFFEE710B5024800F023FCF8
:100C800010BD00003805002010B5024800F01BFC24
:100C900010BD00006005002070B506460C461546E4
:100CA000334886422ED1B5F5006F06D23148056033
:100CB000002030494860886006E000202D49086027
:100CC000084645600420886000202A49C860082042
:100CD00008610020087520782749087060784870FE
:100CE000A0788870E078C8702079087160794871C0
:100CF000A0798871E079C871204B0A461D493046B9
:100D000000F00CFA1E4886422ED1B5F5006F06D2CF
:100D10001C48056000201B494860886006E00020F0
:100D2000184908600846456004208860002015497D
:100D3000C8600820086100200875207812490870F2
:100D400060784870A0788870E078C8702079087161
:100D500060794871A0798871E079C8710B4B0A46B7
:100D60000849304600F0DAF9012009F037FF70BD7C
:100D7000380500207C0800202C0000203C000020CA
:100D800060050020B0080020400000205000002036
:100D900004284FF0000070470020704710B5002273
:100DA0000449054805F041FE0449034805F033FEB7
:100DB000002010BD0025002048140020001D002048
:100DC00070B506460C463146114805F024FE002158
:100DD0002068104D00280CD90F4B6A8816F801C006
:100DE000501C688003F802C0481C81B22068884209
:100DF000F3D8206868600CF039F80021E960A86039
:100E000001202870024805F0E5FD002070BD0000BB
:100E1000481400207003002018190020002070479B
:100E200010B50A460849D1F8BC12D1F814120029AD
:100E300001D0012010BD0146034805F0F6FDBDE8D4
:100E40001040014805F07ABE4814002010B5024851
:100E500001F04CF910BD0000BC07002010B502489D
:100E600001F044F910BD00001C08002010B5024834
:100E700001F03CF910BD00005C07002001680A4B3E
:100E8000CAB2103AA3FB02321209084B9B5CC3653D
:100E9000032A04D96FF30901091D816502E06FF38C
:100EA00009018165806D7047ABAAAAAA9AE2000881
:100EB000014600208A6A8B69002B0FD0B3F5005FD2
:100EC0001DD08AB3012A30D0022A2ED0032A04D1A1
:100ED000C96A11F0807F00D0012070471AB1012A41
:100EE00007D0022AF9D1C96A11F0807FF5D001201C
:100EF0007047C96AB1F1C07FFAD1012070475AB179
:100F0000012A0BD0022A07D0032AF7D1C96AB1F10E
:100F1000C07FF3D10120704701207047C96A11F0EA
:100F2000807FFAD001207047FFE70120704710B49E
:100F3000D0F800C0DCF8004024F48024CCF8004055
:100F4000D0F800C0CCF804308368402B05D003688B
:100F500099600068C26010BC704703689A600068BE
:100F6000C16010BC7047704772B606E0102103489C
:100F700001F08CFB322001F05DFAF7E7001002402F
:100F800030B505460C4628782070FE2060706878E1
:100F9000A070A878E070E87820710421601C09F046
:100FA00048FC607130BD00002DE9F84F05468946C8
:100FB000002400260027A046A246A3460020009059
:100FC00014213E4809F02AFC00BF08E0A85D24284F
:100FD00003D14FF0010A374603E0701C86B2FF2EA2
:100FE000F4DB00BFB6F5FA7F02D10120BDE8F88F2F
:100FF000781C285C062817D006DC01280BD00228B4
:101000000CD005281CD10CE0072816D0FE2811D0E2
:10101000FF2815D10BE04FF0040814E04FF00E0844
:1010200011E04FF004080EE04FF00C080BE04FF019
:10103000050808E04FF0050805E04FF0040802E05D
:101040004FF0000800BF00BF0020E85500240AE070
:101050003819401C285C1949085500213819401CD2
:101060002954601C84B24445F2DBBAF1000F22D04F
:10107000A8F101001149085C0090A8F10100C1B27B
:101080000E4809F0D6FB83460098834511D12420F1
:1010900089F80000002405E00848015D601C09F89B
:1010A000001084B24445F7DB08EB0700401CC0B2D7
:1010B0009CE701209AE7012098E70000EB1300204D
:1010C00070B50B480168001D0568001D00680844E4
:1010D00000280CD0074C0822A11C03F0C1FA04F12F
:1010E00012012846BDE87040042203F0B9BA70BD71
:1010F000107AFF1F5003002090F82020012A07D00B
:10110000022A05D0416A41F48021416201207047E2
:1011100000684269114341610020704770B490F843
:101120002040D0F800C0DCF808C0012C08D0022C08
:1011300006D0416A41F48021416270BC01207047B1
:101140000CF080640CF000652C4302D11CF0805F31
:101150005FD0CCF3016CBCF1020F06D9416A41F4B7
:101160000001416270BC01207047012404FA0CF4B4
:101170001C608B684FF4C0749BB1CD6804EB0C16F7
:101180002B434D6843EAC5030568AB514FF4C27366
:10119000066803EB0C130D69F550097D012909D090
:1011A0000DE00D88CB6804EB0C1643EA4553056847
:1011B000AB51EBE70168CD5845F48075CD501179FE
:1011C000D379557941EA036193791B0443EA0523F6
:1011D00019434FF4C675036805EB0C155951117886
:1011E000D37841EA0361937852781B0443EA0222E0
:1011F00011434FF4C473026803EB0C13D150016820
:1012000004EB0C100A5842F001020A5070BC002096
:101210007047416A41F40011416270BC012070477F
:1012200090F82020012A07D0022A05D0416A41F413
:1012300080214162012070474248D0F8002242F0EC
:101240000102C0F80022D0F8002222F47C52C0F83B
:101250000022D0F800224B6A42EA0322C0F80022A2
:101260000A7D012302F01F0203FA02F2D0F81C32B9
:101270009343C0F81C32CB69D3B9D0F80C329343F6
:10128000C0F80C32B1F80CC04B686CF31F43D1F8B6
:1012900014C000EBCC0CCCF84032B1F808C00B689D
:1012A0006CF31F43D1F814C000EBCC0CCCF84432E3
:1012B000CB69012B1AD1D0F80C321343C0F80C3291
:1012C000B1F800C04B686CF31F43D1F814C000EBB9
:1012D000CC0CCCF84032B1F808C0CB686CF31F439B
:1012E000D1F814C000EBCC0CCCF844328B697BB144
:1012F000D0F804321343C0F804320B6973B1D0F84C
:1013000014321343C0F81432096A01290CD010E0DA
:10131000D0F804329343C0F80432EEE7D0F8143228
:101320009343C0F81432EFE7D0F81C121143C0F811
:101330001C12D0F8001221F00101C0F800120020A8
:10134000704700000064004070B50446204600F07D
:1013500002F8054670BD406A704710B490F820C08E
:10136000BCF1010F09D0BCF1020F06D0416A41F473
:101370008021416210BC0120704739B1D0F800C013
:10138000DCF810C01CF0030F7DD006E0D0F800C0E0
:10139000DCF80CC01CF0030F7BD04FF4D87C046841
:1013A0000CEB011C54F80C4004F004049460002C75
:1013B0007DD0046854F80C40E4085460046854F884
:1013C0000CC00CF0020CC2F80CC04FF4DA7C0468BC
:1013D0000CEB011C54F80C4004F00F041461046879
:1013E00054F80C40C4F307249461046854F80CC00A
:1013F0004FEA1C4CC2F814C04FF4DC72D0F800C0A5
:1014000002EB01125CF802C083F800C0D0F800C003
:101410005CF802C04FEA1C2C83F801C0D0F800C071
:101420005CF802C04FEA1C4C83F802C0D0F800C040
:101430005CF80220120EDA704FF4DE72D0F800C0B1
:1014400002EB01125CF802C083F804C0D0F800C0BF
:101450005CF802C04FEA1C2C83F805C0D0F800C02D
:101460005CF802C04FEA1C4C83F806C0D0F800C0FC
:101470005CF80220120EDA71F9B10068016941F0DE
:101480002001016102E00BE003E010E010BC00204D
:101490007047416A41F40011416210BC012070475D
:1014A000416A41F40011416210BC01207047046898
:1014B00054F80C40640D146080E70068C16841F086
:1014C0002001C160DEE72DE9F05F054600242868B1
:1014D0004669D0F804908768D0F80CA0D0F810B016
:1014E000D0F8188016F0010F54D017F0010F17D064
:1014F0000121816017F0020F03D0284600F08CFD17
:101500000EE017F0040F02D04FF4006408E017F06B
:10151000080F02D04FF4805402E0284600F07BFD13
:1015200017F4807F19D029684FF48070886017F411
:10153000007F03D0284600F071FD0EE017F4806FA5
:1015400002D044F4005408E017F4006F02D044F4D1
:10155000804402E0284600F060FD17F4803F19D077
:1015600029684FF48030886017F4003F03D0284684
:1015700000F056FD0EE017F4802F02D044F4004432
:1015800008E017F4002F02D044F4803402E028462B
:1015900000F045FD16F0080F07D01AF0100F04D028
:1015A00044F4007429681020C86016F0040F4FF04E
:1015B000080707D01AF0080F04D02868C76028462B
:1015C00000F000FA16F0020F07D02868C06810F08B
:1015D000030F02D0284600F0F7F916F0400F07D0AD
:1015E0001BF0100F04D044F48064296810200861B7
:1015F00016F0200F07D01BF0080F04D028680761F1
:10160000284600F0D3FC16F0100F07D028680069B8
:1016100010F0030F02D0284600F0C9FC16F4003F7A
:1016200008D019F0100F05D029681020486028460E
:1016300000F0BEFC16F4803F07D019F0080F04D06C
:1016400028684760284600F0ECFC16F4004F4AD0AA
:1016500019F0040F44D016F4807F04D018F0010F65
:1016600001D044F0010416F4007F04D018F0020FFA
:1016700001D044F0020416F4806F04D018F0040F77
:1016800001D044F0040416F4006F29D018F0700F54
:1016900026D008F07000402815D006DC102809D0AC
:1016A00020280AD0302816D10AE050280ED0602811
:1016B00011D10EE044F008040DE044F010040AE0FB
:1016C00044F0200407E044F0400404E044F08004C7
:1016D00001E044F480742868816921F0700181611F
:1016E000296804204860002C05D0686A204368629D
:1016F0002846FFF729FEBDE8F09F70B50446002C90
:1017000003D094F8200010B104E0012070BD204601
:1017100000F0A8F82068016841F00101016000F0C4
:10172000C5FF0546206840684FF0050610F0010F20
:1017300011D100F0BBFF401B0A2807D9606A40F4B2
:101740000030606284F82060012070BD206840682D
:1017500010F0010FEDD02068016821F00201016056
:1017600000F0A4FF05462068406810F0020F11D079
:1017700000F09CFF401B0A2807D9606A40F4003043
:10178000606284F82060012070BD2068406810F01D
:10179000020FEDD1207E01283FD02068016821F0A2
:1017A00080010160607E01283DD02068016821F041
:1017B00040010160A07E01283BD02068016821F033
:1017C00020010160E07E012839D02068016841F0E5
:1017D00010010160207F012837D02068016821F0C6
:1017E00008010160607F012835D02068016821F080
:1017F00004010160E168A06862690843216911433E
:1018000008436168491E08432168C861002060627E
:10181000012084F82000002070BD2068016841F09C
:1018200080010160BEE72068016841F0400101606D
:10183000C0E72068016841F020010160C2E720682C
:10184000016821F010010160C4E72068016841F0DF
:1018500008010160C6E72068016841F004010160E9
:10186000C8E7000010B586B00446142101A8FEF7B1
:10187000D1FE4E492068884241D14D480068401C45
:101880004B4908600846006801280FD100BF0020BE
:1018900000904848006840F00070464908600846DB
:1018A000006800F00070009000BF00BF00BF002083
:1018B000009040481038006840F008003D49103959
:1018C00008600846006800F00800009000BF00BFF4
:1018D0000320019002200290002003900320049036
:1018E0000920059001A9344800F0B8FD0022052127
:1018F000142000F081FF142000F070FF54E02F4905
:101900002068884250D100BF00200090294800681C
:1019100040F08060274908600846006800F0806059
:10192000009000BF00BF22480068401C20490860AA
:101930000846006801280FD100BF002000901D4814
:10194000006840F000701B4908600846006800F01D
:101950000070009000BF00BF00BF0020009015483D
:101960001038006840F0020012491039086008463B
:10197000006800F00200009000BF00BF60200190EE
:10198000022002900020039003200490092005907B
:1019900001A90B4800F062FD00220521402000F063
:1019A0002BFF402000F01AFF06B010BD006400407D
:1019B0001803002040380240000C0240006800403C
:1019C00000040240704700002DE9F0472DED048B24
:1019D00086B08146F74BF84A0021F848FFF7BDFC76
:1019E00000287DD1804624208DF80400A0208DF8A9
:1019F0000500002006E0EF490A5C01AB011D5A54C6
:101A0000411CC8B20828F6DBEB480068B0F5BA7F85
:101A10004BD10BF02BFA0021E94A106051609FED89
:101A2000E90BEA4880ED000BE94A116051609FED37
:101A3000E90BEA4880ED000B8A4613E0DD4810F818
:101A40000A4000264FEACA0220463146FEF71FFD33
:101A5000DF4B0CCB80185941DD4A03C20AF101006B
:101A600000F0FF0ABAF1040FE8DDD94903C90BF011
:101A7000A1FE41EC190BD94890ED000B53EC102B53
:101A800051EC190B0BF0A8FC9FEDD50B53EC102B70
:101A90000CF01EF9CD4A03C2C6484079D24981F8FC
:101AA0003E00C448807981F84900C348006840F28C
:101AB0007511884244D10BF0D9F90021C04A106059
:101AC00051609FEDC00BC94880ED000BC84A116002
:101AD00051609FEDC00BC74880ED000B8A4615E0B2
:101AE0004CE2B44810F80A5000274FEACA022846D0
:101AF0003946FEF7CCFCBE4AD2E90032C01851414B
:101B0000BB4A03C20AF1010000F0FF0ABAF1040F58
:101B1000E7DDB74903C90BF04DFE41EC190BB548A1
:101B200090ED000B53EC102B51EC190B0BF054FC07
:101B30009FEDB10B53EC102B0CF0CAF8AB4A03C26B
:101B40009D484068C0F30F28B8F5427F70D019DC7B
:101B5000B8F5047F6DD00ADCA8F2012000286CD013
:101B6000042868D0062867D0082846D1A9E0A8F242
:101B70001520002875D0012874D00C2873D0EE28C9
:101B8000F3D145E140F21251A8EB0100884535D070
:101B90000CDCA8F21330002879D0012878D0A0F20C
:101BA000FD10002875D00128DFD10DE0A0F56A40B6
:101BB000F23800286ED0A0F6EA6000286BD0012829
:101BC0006AD0B228D1D1AEE111208DF806000520EF
:101BD0008DF807000B210DF1050008F02AFE8DF8A5
:101BE00010001120864908700BF040F90021854A49
:101BF00010605160012084490870A8E112208DF81E
:101C0000060005208DF807000B210DF1050008F0F6
:101C100010FE8DF810001220794908700BF026F99B
:101C200000217A4A106051600120774908708EE1E6
:101C300001E15AE001E017E02FE001208DF80600F5
:101C400002208DF807000B210DF1050008F0F1FDD1
:101C50008DF8100000206A49087001206A49087058
:101C600075E156E069E07CE005208DF80600022071
:101C70008DF807000B210DF1050008F0DAFD8DF855
:101C8000100001205E4908705F4908705FE1E6E0DE
:101C9000F9E07AE00BE11EE131E107208DF8060062
:101CA00002208DF807000B210DF1050008F0C1FDA1
:101CB0008DF8100002205249087001205249087026
:101CC00045E109208DF8060002208DF807000B2160
:101CD0000DF1050008F0ADFD8DF810000320484916
:101CE000087001204849087031E110208DF8060085
:101CF00002208DF807000B210DF1050008F099FD79
:101D00008DF8100004203E49087001203E490870FB
:101D10001DE115208DF8060002208DF807000B212B
:101D20000DF1050008F085FD8DF8100005203449FF
:101D3000087001203449087009E116208DF806006A
:101D400002208DF807000B210DF1050008F071FD50
:101D50008DF8100006202A49087001202A490870D1
:101D6000F5E021208DF8060002208DF807000B21F8
:101D70000DF1050008F05DFD8DF8100007202049E9
:101D80000870012020490870E1E010208DF806005D
:101D900005208DF807000B210DF1050008F049FD25
:101DA0008DF81000082016490870012016490870A7
:101DB000CDE0000034000020940800203805002009
:101DC000280100200000000000000000B8000020F2
:101DD000000100200000000084D797410801002086
:101DE0000000000000805640E4080020C0000020F1
:101DF0001001002018010020000000000080664053
:101E00005500002030010020600000203801002033
:101E100003208DF806008DF807000B210DF1050059
:101E200008F007FD8DF8100009205A4908700120BC
:101E3000594908708BE008208DF8060003208DF8C2
:101E400007000B210DF1050008F0F3FC8DF81000E0
:101E50000A205049087001204F49087077E013208C
:101E60008DF8060003208DF807000B210DF1050009
:101E700008F0DFFC8DF810000B20464908700120A7
:101E80004549087063E014208DF8060003208DF8A2
:101E900007000B210DF1050008F0CBFC8DF81000B8
:101EA0000C203C49087001203B4908704FE0042099
:101EB0008DF80600F0208DF807000B210DF10500CC
:101EC00008F0B7FC8DF810000D2032490870012091
:101ED000314908703BE0EE208DF80600FE208DF8B9
:101EE00007000B210DF1050008F0A3FC8DF8100090
:101EF0000E202849087001202749087027E0EF20AC
:101F00008DF80600FE208DF807000B210DF105006D
:101F100008F08FFC8DF810000F201E49087001207A
:101F20001D49087013E0A0208DF80600FF208DF8F1
:101F300007000B210DF1050008F07BFC8DF8100067
:101F400010201449087001201349087000BF00BF19
:101F50001148007888B100200AE001A9095C0D4A07
:101F600012780D2313FB02020C4B9954411CC8B28A
:101F70000D28F2DB00200849087000BF084B094A11
:101F800000210948FFF7E9F906B0BDEC048BBDE874
:101F9000F08700005500002060000020980A002013
:101FA00048000020C80800206005002070477047E6
:101FB000704770B5044694F82000012805D0606A87
:101FC00040F400206062012070BD022084F82000EF
:101FD0002068016821F00101016000F067FB0546FF
:101FE0002068406810F0010F12D000F05FFB401B2A
:101FF0000A2808D9606A40F400306062052084F83D
:102000002000012070BD2068406810F0010FECD165
:102010000020606270BD704770477047704770471E
:10202000704770472DE9F0410446A66D00F03EFB75
:10203000054694F835000027022806D08020606508
:1020400084F834700120BDE8F0812068016821F037
:10205000160101602068416921F080014161206C16
:1020600008B9A06C20B12068016821F00801016066
:102070002068016821F0010101602068006810F00B
:10208000010F12D000F012FB401B052808D92020B8
:102090006065032084F8350084F83470BDE8F08171
:1020A0002068006810F0010FECD194F85C003F212B
:1020B00001FA00F0B060012084F8350084F8347033
:1020C0000020BDE8F08190F83510022903D080216E
:1020D000416501207047052180F8351000680168CE
:1020E00021F0010101600020704700002DE9F84354
:1020F00004464FF00008CDF8008076484FF41651A2
:102100000068B0FBF1F7A56D2E6894F85C0008211B
:1021100001FA00F0304211D02068026812F0040F7A
:102120000CD0026822F00402026094F85C0001FA0C
:1021300000F0A860606D40F00100606594F85C00FC
:102140004FF0010909FA00F0304209D021684969CD
:1021500011F0800F04D0A860606D40F0020060654F
:1021600094F85C1004208840304209D02168096846
:1021700011F0020F04D0A860606D40F004006065AB
:1021800094F85C1010208840304224D021680968FF
:1021900011F0080F1FD0A8602068016811F4802F8B
:1021A0000DD0006810F4002F04D0A16C99B1204626
:1021B000884710E0216C71B1204688470BE0016828
:1021C00011F4807F03D1016821F008010160216CC6
:1021D00009B12046884794F85C102020884030429E
:1021E00051D02168096811F0100F4CD0A86094F804
:1021F000350005280DD02068016811F4802F32D0F9
:10220000006810F4002F29D0E16B59B320468847AD
:1022100039E02068016821F01601016020684169F9
:1022200021F080014161206C08B9A06C20B12068C8
:10223000016821F00801016094F85C003F2101FA77
:1022400000F0A86084F8359084F83480216D00296E
:102250003ED001B02046BDE8F0430847616C09B1AB
:10226000204688470FE0016811F4807F07D101689C
:1022700021F01001016084F8359084F83480E16B1E
:1022800009B120468847606D002821D0606D10F0AC
:10229000010F15D0052084F835002068016821F071
:1022A000010101600098401C0090B84204D82068E9
:1022B000006810F0010FF5D184F8359084F834806F
:1022C000E16C002904D001B02046BDE8F043084786
:1022D000BDE8F883A00300202DE9F041044600F09A
:1022E000E5F90546DCB1022084F83500002684F8C3
:1022F00034602068016821F00101016020680068F5
:1023000010F0010F13D000F0D1F9401B052809D9B6
:1023100020206065032084F83500BDE8F0810120AD
:10232000BDE8F0812068006810F0010FEBD1216852
:102330000868234A1040A3686268D4F810C01A43A2
:10234000E36843EA0C031A4363691A43A3691A4317
:10235000E3691A43236A1A431043626A042A03D1C9
:10236000236BE26A1A43104308602068406920F03A
:102370000701606A40EA0105012704280ED1A06A1E
:102380000543E06A50B12046FEF792FD30B140208F
:10239000606584F835700120BDE8F08120684561F2
:1023A0002046FEF76BFD94F85C103F2202FA01F123
:1023B0008160666584F835700020BDE8F08100001A
:1023C0003F8010F070B504460025A66D94F83400E7
:1023D00001280DD0012084F8340094F835C0002085
:1023E000BCF1010F06D084F834000225284670BDE8
:1023F000022070BD4FF0020C84F835C060652046A5
:10240000FEF795FD94F85C003F2101FA00F0B06002
:102410002068016841F016010160206C20B120683D
:10242000016841F0080101602068016841F0010184
:102430000160DBE770B5044600F038F90546B4F1F9
:10244000FF3F02D004480078044400F02FF9401BFD
:10245000A042FAD370BD0000940300202DE9F84F8C
:102460000022DFF81492DFF814A2DFF814B24FF064
:10247000010E03274FF00F080EFA02FC0B6803EA67
:102480000C0363457DD10C7904F00304012C01D0C9
:10249000022C14D18568540007FA04F6B543CE68BF
:1024A00006FA04F42C438460446824EA0C0C0C798A
:1024B000C4F30014944044EA0C0CC0F804C0D1F8F2
:1024C00004C037EA0C0C0CD0C4684FEA420C07FA7F
:1024D0000CF5AC438D6805FA0CFC4CEA040CC0F812
:1024E0000CC091F804C00CF0030CBCF1020F12D127
:1024F0004FEAD20C00EB8C04256A4FEA427C4FEA8B
:10250000DC6C08FA0CF6B5430E6906FA0CFC4CEAD2
:10251000050CC4F820C004684FEA420C07FA0CF519
:10252000AC430D7905F0030505FA0CFC4CEA040CEC
:10253000C0F800C0D1F804C01CF4403F7DD0D9F8E9
:1025400000C04CF4804CC9F800C0D9F800C00CF4AD
:10255000804CCDF800C022F0030C0CF1804505F54D
:102560009835D5F808C89407240F08FA04F62CEA21
:102570000606A0F1804CBCF5003C64D0A0F1804C74
:1025800000E05AE0BCF5013C60D0A0F1804CBCF505
:10259000023C5ED0A0F1804CBCF5033C5CD0A0F1C5
:1025A000804CBCF5043C5AD0A0F1804CBCF5053CF5
:1025B00058D0A0F1804CBCF5063C56D0A0F1804C20
:1025C000BCF5073C54D04FF0080C0CFA04FC4CEA64
:1025D000060CC5F808C8DAF800C02CEA030C4C68F1
:1025E00014F4803F01D04CEA030CCAF800C0254C1B
:1025F000D4F800C02CEA030C4D6815F4003F01D05C
:102600004CEA030CC4F800C0DBF800C02CEA030C51
:102610004C6814F4801F01D04CEA030CCBF800C0C6
:10262000194CD4F800C02CEA030C4D6815F4001FB7
:1026300001D04CEA030CC4F800C0521C102AFFF46D
:102640001BAFBDE8F88F4FF0000CBEE74FF0010C58
:10265000BBE74FF0020CB8E74FF0030CB5E74FF0C3
:10266000040CB2E74FF0050CAFE74FF0060CACE7F7
:102670004FF0070CA9E7000044380240003C01403D
:10268000083C0140043C01400C3C0140426921EA05
:102690000203114043EA014181617047002A01D0E1
:1026A00081617047090481617047000001488068BA
:1026B00070470000940300200248816802781144AA
:1026C000816070479403002010B50B48016841F405
:1026D00000710160016841F480610160016841F4AA
:1026E00080710160032000F0BBF80F2000F006F8B5
:1026F00000F04AF8002010BD003C024070B588B0E0
:1027000004460025002600222146372000F074F8F8
:10271000372000F063F800BF0020019016480068E1
:1027200040F02000144908600846006800F02000CE
:10273000019000BF00BF02A903A800F029FE00F02D
:102740004BFE45000D48B5FBF0F0461E0C480D4908
:10275000086040F2E7310B48C1604660002101612A
:10276000816001F075F920B9064801F0A0F908B0C0
:1027700070BD0120FBE700004038024040420F00DE
:10278000001400400014002008B500BF0020009095
:102790001148006840F480400F490860084600680E
:1027A00000F48040009000BF00BF00BF00200090F8
:1027B000081F006840F08050091F08600846006844
:1027C00000F08050009000BF00BF00220F21901E3B
:1027D00000F012F808BD00004438024000280ADB6F
:1027E00000F01F01012202FA01F14009800000F10E
:1027F000E020C0F80011704710B4184B1B68C3F3F9
:102800000223C3F1070CBCF1040F01D94FF0040CF3
:102810001C1D072C01D2002300E0DB1E012404FA5A
:102820000CFCACF1010C0CEA0101994004FA03F331
:102830005B1E1A401143002806DB00F1E02009016D
:1028400080F8001410BC704700F00F0000F1E02089
:10285000090180F8141D10BC704700000CED00E069
:1028600000F00700064A11684FF6FF03194041EADD
:10287000002040F0FD7040F0806010607047000064
:102880000CED00E07047006841620020704730B4F2
:102890000368586A00291BD0D3F828C000EB1C4CF1
:1028A00000200129A1F101014FF4827408D004EB4A
:1028B00080055D590CEB154C401CC0B28842F6D324
:1028C00004EB81014CEA0240585030BC00207047B4
:1028D00040EA02409862F8E7D0F8040404F039BCFA
:1028E000C1EBC10200EB8202D0F80404926C04F048
:1028F0009ABBC1EBC10200EB8202D0F80404D2F80B
:10290000082204F0EEBBD0F8040404F024BC70B537
:10291000044611F0800F01F00F00C0EBC00104EB82
:1029200081014FF001024FF0000502D03C314A70A6
:1029300002E001F5FE714D70087094F8BC030128A7
:1029400008D084F8BC23206805F046F884F8BC530E
:10295000002070BD022070BD70B5044601F00F026A
:102960006068824201D9012070BD01F00F00C0EB08
:10297000C00011F0800F04EB80004FF001034FF016
:10298000000503D000F13C014B7002E000F5FE7140
:102990004D708D700A7094F8BC03012808D084F83B
:1029A000BC33206805F02AFA84F8BC53002070BDBF
:1029B000022070BD01F00F01C1EBC10100EB8100ED
:1029C000D0F81402704770B5044611F0800F01F082
:1029D0000F00C0EBC00104EB81014FF0010C4FF080
:1029E000000503D03C3181F801C002E001F5FE7121
:1029F0004D7008708A60CB704A7802B1C880022B93
:102A000000D10D7194F8BC03012808D084F8BCC330
:102A1000206804F01FFF284684F8BC5370BD0220D4
:102A200070BD10B50C4604F00F0CCCEBCC0100EBE4
:102A3000810101F5FE71CA604B6100238B614B700F
:102A400081F800C00369012B00D10A6114F00F0F57
:102A500005D0027C006805F02CFA002010BD027C35
:102A6000006805F005F9F8E770B504460D466168A1
:102A700005F00F00884201D9012070BD15F0800FCC
:102A80004FF000064FF0010206D0C0EBC00104EB8E
:102A900081013C314A7006E0C5EBC50104EB8101C0
:102AA00001F5FE714E708A70087094F8BC0301281D
:102AB00008D084F8BC23206805F0CCF915F00F0F7E
:102AC00002D007E0022070BD217C04F571722068FD
:102AD00005F064F984F8BC63002070BD10B50C46A5
:102AE00004F00F0CCCEBCC0100EB81013C31CA604F
:102AF0004B6100238B6101234B7081F800C0036997
:102B0000012B00D10A6114F00F0F05D0027C006880
:102B100005F0CFF9002010BD027C006805F0A8F890
:102B2000F8E72DE9F05F04462568284605F01EFB0E
:102B300000287DD1206805F045FB002878D020686A
:102B400005F040FB10F0020F04D02068416901F04D
:102B500002014161206805F035FB10F0100F36D0FE
:102B60002068816921F0100181612F6A07F00F0050
:102B7000C0EBC00004EB800000F5FE76C7F34340D5
:102B8000022802D0062812D01CE047F6F070074257
:102B900018D0C7F30A1217462846F16805F016FB4D
:102BA000F0683844F060B0693844B0610AE0082247
:102BB00004F57171284605F009FBB069C7F30A11E5
:102BC0000844B0612068816941F01001816120688A
:102BD00005F0F8FA10F4002F4FF001094FF0080A41
:102BE0004FF0100B45D00026206805F0CAFA804649
:102BF0005FEA08003DD018F0010F34D0F1B2206830
:102C000005F0D8FA074617F0010F07D005EB46107C
:102C1000C0F8089B3146204601F0BCFF17F0080FB2
:102C200009D005EB4610C0F808AB3146204600E05D
:102C300090E101F08BFF17F0100F03D005EB461069
:102C4000C0F808BB17F0200F04D005EB4611202078
:102C5000C1F8080B17F4005F05D005EB46114FF4DF
:102C60000050C1F8080B761C4FEA5808B8F1000F65
:102C7000C1D1206805F0A6FA10F4802F63D0206837
:102C800005F078FA80460026B8F1000F5BD018F006
:102C9000010F52D0F1B2206805F07AFA074617F01A
:102CA000010F25D006F00F0009FA00F0D5F834180E
:102CB00021EA0000C5F8340805EB4610C0F8089971
:102CC0002069012810D1C6EBC60004EB8000426CDD
:102CD000816C114481643EB9206D28B904F571728C
:102CE0000121206805F05AF8F1B22046FFF7F8FDFF
:102CF00017F0080F03D005EB4610C0F808A917F02D
:102D0000100F03D005EB4610C0F808B917F0400FBC
:102D100004D005EB46114020C1F8080917F0020F56
:102D200004D005EB46110220C1F8080917F0800F06
:102D300003D03146204601F0A3FF761C4FEA580825
:102D4000B8F1000FA3D1206805F03CFA10F0004F55
:102D500011D0D5F8040820F00100C5F8040894F853
:102D6000F403012867D0204600F0F7F92068416994
:102D700001F000414161206805F024FA10F4006F71
:102D80000CD0D5F8080810F0010F02D0204600F052
:102D900029FA2068416901F400614161206805F069
:102DA00011FA10F4805F6CD0D5F8040820F001000F
:102DB000C5F804081021206805F0AEF9002160680C
:102DC000002823D94FF67F3205EB4110C0F80829BF
:102DD000D0F8003923F40013C0F80039D0F80039D6
:102DE00043F00063C0F80039C0F8082BD0F8003B6E
:102DF00023F40013C0F8003BD0F8003B43F000631D
:102E0000C0F8003B491C60688842DDD8D5F81C0832
:102E100040F00110C5F81C08206BA0B1D5F884085B
:102E200040F00B00C5F88408D5F8440840F00B00CA
:102E3000C5F8440814E0002084F8F403002120467B
:102E4000FFF720FD92E7D5F8140842F22B01084362
:102E5000C5F81408D5F8100840F00B00C5F81008A4
:102E6000D5F8000820F4FE60C5F80008217C04F5C0
:102E70007172206804F092FF2068416901F480516A
:102E80004161206805F09EF910F4005F16D02068BB
:102E900004F02EFD206805F059F9E06000F096FA84
:102EA00023680146227B184605F0FCF9204600F015
:102EB0003DF92068416901F400514161206805F045
:102EC00081F910F0080F07D0204600F04AF9206879
:102ED000416901F008014161206805F073F910F4BF
:102EE000801F08D00021204600F036F82068416994
:102EF00001F480114161206805F064F910F4001FAD
:102F000008D00021204600F02BF82068416901F428
:102F100000114161206805F055F910F0804F07D08D
:102F20002046FFF7D9FC2068416901F080414161EA
:102F3000206805F047F910F0040F0BD020684568B1
:102F400015F0040F02D02046FFF7DDFC2068416831
:102F500029434160BDE8F09FD0F8040404F04DB966
:102F6000D0F8040404F05AB92DE9F0478AB00446B9
:102F7000002C05D0266894F8BD03002520B108E098
:102F80000AB00120BDE8F08784F8BC53204600F069
:102F90008BF8032084F8BD03F06B10F4807F00D120
:102FA0002561206804F05EFE04F11000D4F82C8046
:102FB00090E80F10A76A666A8DE80F10CDF81C80A4
:102FC00006970596616B206B0991089094E80F00B5
:102FD00004F09CFC022728B184F8BD730AB00120DC
:102FE000BDE8F0870021206805F014F90021606831
:102FF0000126002813D9C1EBC10004EB800080F842
:103000003D6080F83C10A0F8421080F83F504564C5
:1030100085640565481CC1B260688842EBD8002110
:103020006068002814D9C1EBC10004EB800080F86F
:10303000FD5180F8FC1180F8FF51C0F80452C0F82F
:103040000852C0F81052481CC1B260688842EAD8E1
:1030500004F11000D4F82CA090E80F10D4F82890B8
:10306000D4F824808DE80F10CDF81CA0CDF818906E
:10307000CDF81480616B206B0991089094E80F00E3
:1030800004F034FD28B184F8BD730AB00120BDE816
:10309000F08784F8385084F8BD63206804F018FD88
:1030A0000AB00020BDE8F08700B587B0002102918A
:1030B00003910491059106910068B0F1A04F2BD1C6
:1030C0001648016841F001010160006800F001004C
:1030D00001904FF4C050029002200390032005900D
:1030E0000A20069002A90E48FFF7B8F90D480168BA
:1030F00041F0800101600C48016841F480410160A9
:10310000006800F480400190002205214320FFF771
:1031100073FB4320FFF762FB07B000BD303802406D
:1031200000000240343802404438024070B5044682
:103130000125E06800280ED0022801D0FDF714FF19
:103140002946D4F8040404F0D8F8D4F80404BDE8FF
:10315000704004F089B80025F2E7D0F8040404F0C8
:10316000B1B8D0F8040404F0B7B810B5044694F828
:10317000BC0301280BD0012084F8BC0384F838106C
:10318000206805F077F8002084F8BC0310BD022009
:1031900010BDD0F8042400F57171104604F0B9B8E0
:1031A00010B50446206894F8BC13012906D001210B
:1031B00084F8BC13A16A012902D008E0022010BDE6
:1031C000A169012903D0816B41F4803181632068BA
:1031D00004F083FF206804F06DFC002084F8BC0339
:1031E00010BD000010B50446D4F8040404F0D5F86E
:1031F0002068D0F8001E41F00101C0F8001E206ACE
:10320000002804D00248016841F00601016010BDA9
:1032100010ED00E02DE9F04704460D46002C13D0D8
:10322000DFF85491D9F80000EFB200F00700A8428F
:103230000DD289F80070D9F8000000F00700A8420C
:1032400005D00120BDE8F0870120BDE8F0872068A7
:103250004A4E10F0020F14D010F0040F03D0306863
:1032600040F4E0503060207810F0080F03D0306850
:1032700040F4604030603068A16820F0F0000843FE
:103280003060207810F0010F3ED060683C49012882
:1032900008D002280DD003280BD0096811F0020FC6
:1032A00028D00AE0096811F4003F06D10120BDE8EA
:1032B000F087096811F0007F19D0316821F003010F
:1032C00008433060FFF7F2F980463068616800F02B
:1032D0000C00B0EB810F17D041F2883AFFF7E6F906
:1032E000A0EB0800504508D90320BDE8F087012075
:1032F000BDE8F0870120BDE8F0873068616800F024
:103300000C00B0EB810FE9D1D9F8000000F0070004
:10331000A8420AD989F80070D9F8000000F0070027
:10332000A84202D00120BDE8F087207810F0040FF9
:1033300005D03068E16820F4E05008433060207820
:1033400010F0080F06D03068216920F4604040EA90
:10335000C100306000F060F831680A4AC1F303111F
:10336000515CC8400849086008480068FFF7C6F982
:103370000020BDE8F0870000003C02400838024011
:1033800000380240A2E20008A003002098030020B9
:103390000F2202600B4A136803F0030343601368B3
:1033A00003F0F0038360136803F4E053C360126812
:1033B00002F46042D20802610348006800F007008E
:1033C0000860704708380240003C0240014800682D
:1033D00070470000A003002000B5FFF7F7FF044985
:1033E0000968044AC1F38221515CC84000BD000055
:1033F00008380240B2E2000800B5FFF7E7FF0449D1
:103400000968044AC1F34231515CC84000BD000064
:1034100008380240B2E2000810B51748006810F002
:103420000C01164816D04310042912D0082911D1D6
:10343000134C216801F03F02216811F4800F0AD07B
:103440002068C0F38810A0FB03010023FCF7A8FF4D
:1034500009E0184610BD21680023C1F38811A1FBC3
:103460000001FCF79DFF2168C1F30141491C49009F
:10347000B0FBF1F010BD0000083802400024F40059
:10348000043802402DE9F84F0446002C12D0207871
:10349000FB4E10F0010FA6F1040563D0301D01684A
:1034A00001F00C0104290CD0006800F00C00082881
:1034B00003D010E00120BDE8F88F306810F4800FD1
:1034C00009D0286810F4003F4CD06068002849D12A
:1034D0000120BDE8F88F6068B0F5803F14D0B0F5EA
:1034E000A02F16D0286820F480302860286820F4A7
:1034F00080202860606810B3FFF7D8F80746286876
:1035000010F4003F0ED02DE0286840F48030286091
:10351000F0E7286840F480202860286840F4803074
:103520002860E7E7FFF7C2F8C01B642802D9032030
:10353000BDE8F88F286810F4003FF3D012E0FFF7E1
:10354000B5F80746286810F4003F0BD0FFF7AEF837
:10355000C01B642802D90320BDE8F88F286810F446
:10356000003FF3D12078C74F10F0020F4FF0000951
:1035700057D0C548016811F00C0F14D0006800F056
:103580000C00082803D1306810F4800F0BD0E068DD
:1035900080B301203860FFF789F88046286810F072
:1035A000020F12D01EE0286810F0020F05D0E0686C
:1035B000012802D00120BDE8F88F2868216920F099
:1035C000F80040EAC10028602BE0FFF76FF8A0EB9D
:1035D0000800022802D90320BDE8F88F286810F0FF
:1035E000020FF2D02868216920F0F80040EAC100FB
:1035F000286016E0FFE7C7F80090FFF757F880460D
:10360000286810F0020F0CD0FFF750F8A0EB08006C
:10361000022802D90320BDE8F88F286810F0020FB5
:10362000F2D1207810F0080F35D09848DFF860A26A
:103630006169C1B101210160FFF738F88046DAF80D
:10364000000010F0020F26D1FFF730F8A0EB0800C1
:10365000022802D90320BDE8F88FDAF8000010F044
:10366000020FF1D017E0C0F80090FFF71FF8804676
:10367000DAF8000010F0020F0DD0FFF717F8A0EBFA
:103680000800022802D90320BDE8F88FDAF800000C
:1036900010F0020FF1D1207810F0040F71D04FF02C
:1036A00000087C48006810F0805F0AD17948016802
:1036B00041F080510160006800F0805000904FF0B0
:1036C0000108DFF8D4B1DBF8000010F4807F1BD1D3
:1036D000DBF8000040F48070CBF80000FEF7E6FF56
:1036E0008246DBF8000010F4807F0DD1FEF7DEFF8C
:1036F000A0EB0A00022802D90320BDE8F88FDBF80E
:10370000000010F4807FF1D0A068DFF890B10128AC
:1037100018D005281DD0DBF8000020F00100CBF800
:103720000000DBF8000020F00400CBF80000A068E7
:1037300040B3FEF7BBFF8246DBF8000010F0020F3B
:1037400014D03EE0DBF8000040F00100CBF80000B0
:10375000EDE7DBF8000040F00400CBF80000DBF8F8
:10376000000040F00100CBF80000E0E7FEF79EFF0C
:10377000A0EB0A0141F28830814204D90320BDE860
:10378000F88F26E005E0DBF8000010F0020FEDD026
:1037900017E0FEF78BFF8246DBF8000010F0020F07
:1037A0000FD0FEF783FFA0EB0A0141F2883081427F
:1037B00002D90320BDE8F88FDBF8000010F0020FFB
:1037C000EFD1B8F1010F04D13248016821F08051E6
:1037D0000160A069F0B32C4909684FF0FF3801F08F
:1037E0000C01082966D0022810D0C7F86090FEF7B7
:1037F0005DFF0446286810F0007F2BD0FEF756FFCF
:10380000001B022851D90320BDE8F88FC7F860904B
:10381000FEF74CFF8146286810F0007F0CD0FEF7C1
:1038200045FFA0EB0900022802D90320BDE8F88F6C
:10383000286810F0007FF2D1216AE069A26A08438B
:10384000616A08EB5202890141EA0241084394F897
:103850002C1000E055E040EA01603060012038663D
:10386000FEF724FF0446286810F0007F49D1FEF7D8
:103870001DFF001B022813D90320BDE8F88F0000AC
:10388000043802400000474208380240800E474298
:1038900074380240403802400070004070380240E6
:1038A000286810F0007FE2D02BE0286810F0007F3D
:1038B000A4D126E0012822D03068E26900F480011A
:1038C00091421AD1226A00F03F01914215D147F688
:1038D000C071626A0140B1EB821F0ED1A26A00F48E
:1038E000403108EB5202B1EB024F06D194F82C1094
:1038F00000F07060B0EB016F03D00120BDE7012044
:10390000BBE70020B9E770B50446002C09D0606A17
:10391000002540B125616561A56294F8510040B170
:103920000CE0012070BD6068B0F5827FF4D0E561E5
:10393000F2E784F85050204600F044F8022084F862
:1039400051002068016821F040010160A0882189B0
:1039500000F4827001F404410843A18901F400617C
:103960000843217C01F002010843217D01F001019F
:103970000843218B01F400710843217F01F03801D5
:10398000084394F8201001F080010843218D01F4D0
:103990000051084321680860A169042000EA114031
:1039A00094F8241001F01001014320684160206860
:1039B000C16921F40061C1616565012084F851008D
:1039C000002070BD10B586B00446142101A8FCF794
:1039D00021FE1B49206888422FD100BF00200090A3
:1039E0001848006840F4805016490860084600688E
:1039F00000F48050009000BF00BF00BF0020009086
:103A000010481438006840F001000E49143908606D
:103A10000846006800F00100009000BF00BFE020F1
:103A200001900220029000200390032004900520C2
:103A3000059001A90448FEF711FD06B010BD000075
:103A40000030014044380240000002407047704797
:103A500010B50446002C03D094F83D0010B107E0E7
:103A6000012010BD002084F83C00204600F01EF824
:103A7000022084F83D00211D206802F0E7FB0120B0
:103A800084F8460084F83E0084F83F0084F8400043
:103A900084F8410084F8420084F8430084F844002C
:103AA00084F8450084F83D00002010BD704790F870
:103AB0003D10012901D001207047022180F83D10FE
:103AC0000168CA6842F00102CA600068A0F1804142
:103AD000B1F5803126D0B0F1804F23D0A0F18041E4
:103AE000B1F580611ED0A0F18041B1F5006119D01F
:103AF000A0F18041B1F5406114D0A0F18041B1F551
:103B000082310FD0A0F18041B1F5A0310AD0A0F1EF
:103B10008041B1F5C05105D0016841F0010101605B
:103B200000207047816801F007010629F8D001687C
:103B300041F001010160F3E7704770B50446206869
:103B400001694FF0000511F0020F17D0C16811F0A4
:103B5000020F13D0E91E01610120207720688069DF
:103B600010F0030F03D02046FFF7E6FF05E02046E4
:103B700000F09DF8204600F09BF825772068016949
:103B800011F0040F18D0C16811F0040F14D06FF0B9
:103B900004010161022020772068806910F4407FD1
:103BA00003D02046FFF7C8FF05E0204600F07FF86D
:103BB000204600F07DF825772068016911F0080F94
:103BC00018D0C16811F0080F14D06FF0080101611E
:103BD000042020772068C06910F0030F03D020462E
:103BE000FFF7AAFF05E0204600F061F8204600F04C
:103BF0005FF825772068016911F0100F18D0C168AF
:103C000011F0100F14D06FF010010161082020771F
:103C10002068C06910F4407F03D02046FFF78CFF76
:103C200005E0204600F043F8204600F041F82577F3
:103C30002068016911F0010F09D0C16811F0010F6E
:103C400005D06FF001010161204600F033F82068D3
:103C5000016911F0800F09D0C16811F0800F05D003
:103C60006FF0800101612046FFF7F0FE20680169D6
:103C700011F0400F09D0C16811F0400F05D06FF06E
:103C800040010161204600F021F82068016911F02F
:103C9000200F0BD0C16811F0200F07D06FF020016A
:103CA00001612046BDE87040FFF7D1BE70BD70478E
:103CB0007047000010B5044603492068884201D1CE
:103CC000FEF7FAFC10BD0000001400407047000031
:103CD00010B564220249034800F059F810BD0000F5
:103CE000950F00204C06002010B54FF47A7206495B
:103CF000064800F01BF806480068006820F008003D
:103D000003490968086010BDAD0B002018070020AA
:103D10001C08002010B51E220249034800F037F8A5
:103D200010BD00008F0B00200806002038B50446A7
:103D300094F83E00202801D0022038BD71B16AB14C
:103D400094F83C0001280BD0012084F83C0020634B
:103D5000204602F089FC034623B107E0012038BD6C
:103D6000022038BD206B012802D00123184638BD3F
:103D7000206801684068009020680C3050E8001FFF
:103D800041F0100140E80012002AF5D1EEE708B535
:103D9000034693F83E00202801D0022008BD81B1DF
:103DA0007AB193F83C0001280DD0012083F83C0043
:103DB0001863184602F0A2FC8446BCF1000F04D040
:103DC00008E0012008BD022008BD186B012803D0BF
:103DD0004FF0010C604608BD18680168406800900B
:103DE00018680C3050E8001F41F0100140E8001244
:103DF000002AF5D1EEE7000070B504460D46624892
:103E000084420AD101206149087009F02FF800218D
:103E10005F4A10605160FFF75BFF5E48844216D135
:103E200009F024F800215C4A03C25C480078284469
:103E30005A4908705A480078022800D100BF5948F2
:103E4000007828B12A465849584800F0D9FB83E049
:103E500055480078242802D101205549087054485B
:103E6000007800286DD05348007878BB4E484078E1
:103E700006281AD006DC01280BD002280DD0052810
:103E800023D10EE007281CD0FE2816D0FF281CD115
:103E90000FE004204749087017E00E2045490870DC
:103EA00013E00420434908700FE00C2041490870DA
:103EB0000BE005203F49087007E005203D490870E8
:103EC00003E004203B49087000BF00BF3948007878
:103ED00028B90020364908703149087070BD0020AB
:103EE0000BE031490B5C2E490A780978491C2C4EAD
:103EF000317031498B54411CC8B2A842F1DB2848CB
:103F000001782C480078401C81420CD101202B49BB
:103F100008702B480078401C29490870002025496A
:103F20000870234908701E48017822480078401C18
:103F3000814206DD00201F4908701D49087018499C
:103F400008702048007818B129461748FCF768FF28
:103F50001548407C00B100BF1448844210D11A4873
:103F6000007818B129461948FCF75AFF0D48007827
:103F700020B12A461549074800F042FBFFF7B4FE7E
:103F8000FFF7C8FE00BFA9E74C0600202101002072
:103F90005001002008060020880100208201002036
:103FA0009D000020630000208F0B002018070020D8
:103FB0008101002080010020F8100020F70000207F
:103FC0009E0000206200002061000020AD0B002058
:103FD00070470000F8B5044622681068D16853693C
:103FE00000F00F0CBCF1000F0AD110F0200F07D029
:103FF00011F0200F04D02046BDE8F84002F052BA7C
:104000000025BCF1000F75D003F0010C01F490768F
:104010005CEA06066ED010F0010F06D011F4807F26
:1040200003D0226C42F00102226410F0040F06D08B
:1040300013F0010F03D0226C42F00202226410F050
:10404000020F06D013F0010F03D0226C42F00402DD
:10405000226410F0080F08D001F0200252EA0C028E
:1040600003D0226C42F008022264226C002A35D070
:1040700010F0200F05D011F0200F02D0204602F0E2
:1040800011FA20684069C0F38010216C11F0080F0C
:1040900000D148B3204602F0C3F92068406910F00F
:1040A000400F1CD02068143050E8001F21F0400160
:1040B00040E80012002AF5D1A06B60B15C490165AF
:1040C000A06BFEF700F8002808D0A06B016D01B0CE
:1040D000BDE8F04008472046FFF77AFFF8BD2046CC
:1040E000FFF776FFF8BD05E0FFE72046FFF770FF1A
:1040F0002564F8BD236B012B7ED110F0100F7BD00F
:1041000011F0100F7ED010685068009050694FF089
:10411000200310F0400F43D0A16B0868406880B2C4
:104120000028E6D0A28D8242E3D9E085C869B0F5C7
:10413000807F2DD020680C3050E8001F21F4807162
:1041400040E80012002AF5D12068143050E8001F22
:1041500021F0010140E80012002AF5D12068143056
:1041600050E8001F21F0400140E80012002AF5D17C
:1041700084F83E30256320680C3050E8001F21F0A1
:10418000100140E80012002AF5D1A06BFDF74AFFAC
:10419000A08DE18D401A81B22046FFF72DFEF8BDBB
:1041A000A08DE18D401A81B2E08D0028F7D0002962
:1041B000F5D020680C3050E8002F22F4907240E8CF
:1041C000002CBCF1000FF4D12068143050E8002F0F
:1041D00022F0010240E8002CBCF1000FF4D184F879
:1041E0003E30256320680C3050E8002F22F010028A
:1041F00040E80023002B00E004E0F3D12046FFF765
:10420000FBFDF8BD10F0800F07D011F0800F04D037
:104210002046BDE8F84002F08CBA10F0400FF0D014
:1042200011F0400FEDD02046BDE8F84002F01FB974
:104230002963000870B50446002C04D094F83D00B2
:10424000002510B106E0012070BD84F83C502046E6
:1042500000F022F8242084F83D002068C16821F491
:104260000051C160204602F081F92068016921F403
:10427000904101612068416921F02A014161206873
:10428000C16841F40051C1602564202084F83D00DC
:1042900084F83E00002070BD10B586B0044614219D
:1042A00001A8FCF7B7F9C7492068884238D100BF98
:1042B00000200090C448006840F40020C249086013
:1042C0000846006800F40020009000BF00BF00BF57
:1042D00000200090BC481038006840F00100BA4946
:1042E000103908600846006800F00100009000BF27
:1042F00000BF0320019002200290002003900320C1
:1043000004900820059001A9B048FEF7A7F8002204
:1043100005213420FEF770FA3420FEF75FFA4FE1F2
:10432000AB492068884258D100BF00200090A648C1
:10433000001D006840F01000A349091D08600846F0
:10434000006800F01000009000BF00BF00BF002018
:1043500000909D481038006840F001009A491039DB
:1043600008600846006800F00100009000BF00BF30
:104370004FF4C060019002200290002003900320BF
:1043800004900720059001A99048FEF767F891482E
:10439000914908604FF00060486000218E488160BC
:1043A000C1604FF480610161002141618161C1619F
:1043B00001624162FDF790FF08B1FCF7D5FD00BF37
:1043C0008548A063846300BF002205212520FEF7F5
:1043D00013FA2520FEF702FAF2E0804920688842AD
:1043E00055D100BF002000907748006840F40030AD
:1043F000754908600846006800F40030009000BF6E
:1044000000BF00BF002000906F481038006840F0E7
:1044100001006D49103908600846006800F001008D
:10442000009000BF00BF0C200190022002900020ED
:104430000390032004900720059001A96348FEF72C
:104440000DF86748674908604FF000604860002138
:1044500064488160C1604FF4806101610021416165
:104460008161C16101624162FDF736FF08B1FCF76D
:104470007BFD00BF5B48A063846300BF0022052171
:104480002620FEF7B9F92620FEF7A8F998E056494C
:104490002068884239D100BF002000904A48006857
:1044A00040F48020484908600846006800F48020F5
:1044B000009000BF00BF00BF0020009042481038AD
:1044C000006840F002004049103908600846006862
:1044D00000F00200009000BF00BF4FF44060019068
:1044E00002200290002003900320049007200590F2
:1044F00001A93E48FDF7B2FF002205212720FEF763
:104500007BF92720FEF76AF95AE03949206888428A
:1045100056D100BF002000902B48001D006840F0DD
:1045200020002949091D08600846006800F02000A5
:10453000009000BF00BF00BF00200090224810384C
:10454000006840F0040020491039086008460068FF
:1045500000F00400009000BF00BFC02001900220C6
:10456000029000200390032004900820059001A9E8
:104570002048FDF773FF174818381F490860800569
:10458000486000211C488160C1604FF48061016176
:10459000002141618161C16101624162FDF79CFEC0
:1045A00008B1FCF7E1FC00BF1348A063846300BFBF
:1045B000002205214720FEF71FF94720FEF70EF9DC
:1045C00006B010BD004C00404038024000000240E0
:1045D00000100140406402405C070020004400409D
:1045E00088600240BC0700200048004000040240F0
:1045F00000140140000802401C080020704770476A
:1046000090F83D30202B01D002207047A9B1A2B113
:1046100090F83C30012B12D001628284C2840021C8
:104620000164212280F83D2080F83C100068C168B8
:1046300041F08001C16000207047012070470220D6
:10464000704700000349884202D10121024A1170DB
:1046500070470000080600201003002000BFFEE79E
:10466000F0B40023002A18D90A24302537269C46A6
:10467000B4EB107F04D905EB107701F8137003E059
:1046800006EB107701F81370000101EB430787F880
:1046900001C05B1CDBB29342EAD3F0BC7047000060
:1046A00010B51D481D4908600C20486000211B48BA
:1046B0008160C1604FF4202101614FF4801141619C
:1046C000002101760121417600218176C1760177B2
:1046D00001214177FDF711F808B1FCF745FC0020F6
:1046E0000F49486188610120C86100200860486066
:1046F0008860C8600861012008620848FCF790FDE6
:1047000008B1FCF731FC0548FDF753FC48F60241BF
:104710000248FCF7F1FC10BD0064004038050020A1
:104720008805002010B51E481E4908600A20486010
:1047300000211C488160C1604FF4402101614FF4A9
:1047400080114161002101760121417600218176AD
:10475000C176017701214177FCF7CFFF08B1FCF763
:1047600003FC0E2010494861002088610120C861C7
:104770000020086048608860C86008610120086205
:104780000E2048620748FCF74BFD08B1FCF7ECFB34
:104790000448FDF70EFC02210248FCF7ADFC10BDF9
:1047A00000680040600500208805002008B500BFB3
:1047B000002000901A48006840F480001849086002
:1047C0000846006800F48000009000BF00BF00BFF2
:1047D000002000900846006840F400100860084679
:1047E000006800F40010009000BF00BF0022052107
:1047F0001020FEF701F81020FDF7F0FF0022052140
:104800003920FDF7F9FF3920FDF7E8FF00220521E7
:104810003A20FDF7F1FF3A20FDF7E0FF08BD000068
:104820003038024000B587B0142102A8FBF7F2FE31
:1048300000BF002001904E48006840F010004C4935
:1048400008600846006800F01000019000BF00BF3B
:1048500000BF002001900846006840F0800008601A
:104860000846006800F08000019000BF00BF00BF54
:10487000002001900846006840F0010008600846EA
:10488000006800F00100019000BF00BF00BF0020E1
:1048900001900846006840F004000860084600687F
:1048A00000F00400019000BF00BF00BF0020019095
:1048B0000846006840F0020008600846006800F002
:1048C0000200019000BF00BF00BF00200190084619
:1048D000006840F0080008600846006800F0080022
:1048E000019000BF00BF00221C212248FDF7D6FE28
:1048F000002210212048FDF7D1FE00224FF48871DC
:104900001E48FDF7CBFE002218211D48FDF7C6FE0C
:104910001C2002900120039000200490059002A921
:104920001448FDF79BFD1020029001200390002009
:104930000490059002A91048FDF790FD4FF488708F
:1049400002900120039000200490059002A90B48DA
:10495000FDF784FD182002900120039000200490B0
:10496000059002A90648FDF779FD07B000BD0000DB
:1049700030380240001002400000024000080240AF
:10498000000C024010B50E480E4908604FF48270CA
:10499000486000210B488160C160016141614FF4B2
:1049A000007181610021C1610162416281620A215D
:1049B000C162FEF7A8FF08B1FCF7D6FA10BD0000EF
:1049C00000300140B005002010B50B480B490860CD
:1049D0004FF496404860002108488160C160016141
:1049E0000C21416100218161C161FFF723FC08B105
:1049F000FCF7BAFA10BD0000004C0040D4060020BD
:104A000010B50B480B4908604FF4964048600021F0
:104A100008488160C16001610C2141610021816110
:104A2000C161FFF707FC08B1FCF79EFA10BD00005A
:104A3000001001400806002010B50B480B49086023
:104A40004FF4E1304860002108488160C160016195
:104A50000C21416100218161C161FFF7EBFB08B1CD
:104A6000FCF782FA10BD0000004400404C06002014
:104A700010B50B480B4908604FF496404860002180
:104A800008488160C16001610C21416100218161A0
:104A9000C161FFF7CFFB08B1FCF766FA10BD00005B
:104AA000004800409006002010B50B480B490860F4
:104AB0004FF4E1304860002108488160C160016125
:104AC0000C21416100218161C161FFF7B3FB08B195
:104AD000FCF74AFA10BD000000140140180700203E
:104AE00010B500220F49104802F077FA08B1FCF720
:104AF0003BFA0E490C4802F07BFC08B1FCF734FA93
:104B00000B49094801F07FFF08B1FCF72DFA064870
:104B100002F02CFD002803D0BDE81040FCF724BAB9
:104B200010BD00001C0300204814002000050020D8
:104B30008003002000BFFEE700BFFEE710B502487B
:104B4000FDF7EFFF10BD0000202F002070B50446D8
:104B50002068056C00EB4110D0F8081B0C4EB542E4
:104B600006D911F4004F03D04FF40041C0F8081BE0
:104B70002046FEF70EFBB54208D92069012805D171
:104B800004F571720121206803F008F9002070BD5E
:104B90000A30544F2DE9F04104460D4623681A6C43
:104BA00003EB4511D1F8080B276920264FF4004C80
:104BB000012F08D0304FBA424DD110F4004F40D0F1
:104BC000C1F808CB55E02D4B10F0080F07D09A42E2
:104BD0004FD910F4004F4CD0C1F808CB49E010F089
:104BE000200F02D0C1F8086B43E010F0280F40D12D
:104BF0009A4205D910F4004F02D0C1F808CB38E032
:104C0000C5EBC50004EB8000D1F8101BD0F80422DE
:104C1000C1F31201511AC0F81412D0F8081211444D
:104C2000C0F8081245B9D4F8100228B904F5717219
:104C30000121206803F0B2F8E9B22046FDF759FEE1
:104C400017E010F0200F01D0C1F8086BE9B2204640
:104C5000FDF74FFE0DE045B9D4F8100228B904F570
:104C600071720021184603F099F8E9B22046FDF769
:104C700040FE0020BDE8F0810A31544F0A30544F05
:104C80002DE9F84F07460E46D7F80080C6EBC60060
:104C900007EB800000F13C046169A069884202D9F9
:104CA0000120BDE8F88F081AA168814200D20846A9
:104CB000C01C4FEA900A08EB461915E0151AA268C5
:104CC000AA4200D21546E81C4FEA900A387C0090B0
:104CD000ABB2F2B24046E16803F05EFBE068284404
:104CE000E060A0692844A061D9F8180980B2504555
:104CF00005D36269A069904201D2002ADED1A16980
:104D0000606988420AD806F00F00012101FA00F01C
:104D1000D8F8341821EA0000C8F834080020BDE8AB
:104D2000F88F00002DE9FC4104460026A578E778BD
:104D3000122D00D100BF124840EA052040EA074684
:104D400020798DF8000060798DF80100A0798DF848
:104D50000200E0798DF80300207A8DF80400607A73
:104D60008DF80500A07A8DF80600E07A8DF807002E
:104D7000324669460348FBF78FFFBDE8FC8100001F
:104D80000300001838050020704770472DE9F04FE8
:104D90002DED068B9BB004460025E0780A2190FBA0
:104DA000F1F201FB1200C6B29FED750BB0EE408A26
:104DB000F0EE608A9FED720BB0EE409AF0EE609AD2
:104DC00020790021CDE90C016079CDE90E01A079AF
:104DD000CDE91001E079CDE91201207ACDE9140185
:104DE000607ACDE90201A07ACDE90401E07ACDE94B
:104DF0000601207BCDE90801607BCDE90A01A0789E
:104E0000012800D10127A078022800D10227012F14
:104E100056D1002529E00CA800EBC500EA00D0E936
:104E2000008940464946FBF732FBCDE9000108F016
:104E3000C1FC53EC182B08F013FA41EC180B02A834
:104E400000EBC500EA00D0E900AB50465946FBF73D
:104E50001EFBCDE9000108F0ADFC53EC192B08F066
:104E6000FFF941EC190B681CC5B2042DD3DD9FED91
:104E7000460B53EC102B51EC180B08F0ADFA41EC3B
:104E80001A0B9FED430B53EC102B08F021FF424A05
:104E900002EB061203C29FED3C0B53EC102B51ECBE
:104EA000190B08F099FA41EC1A0B9FED3C0B53ECEF
:104EB000102B08F00DFF384A02EB0612C2E902017E
:104EC000022F57D100252AE00CA800EBC50103C929
:104ED000EA00CDE91810FBF7DAFACDE9000108F095
:104EE00069FC53EC182B08F0BBF941EC180B02A835
:104EF00000EBC500D0E90010EA00CDE91601084634
:104F00001699FBF7C4FACDE9000108F053FC53EC05
:104F1000192B08F0A5F941EC190B681CC5B2042D3A
:104F2000D2DD9FED190B53EC102B51EC180B08F050
:104F300053FA41EC1A0B9FED160B53EC102B08F0B3
:104F4000C7FE184A02EB061203C29FED0F0B53EC8B
:104F5000102B51EC190B08F03FFA41EC1A0B9FEDA6
:104F60000F0B53EC102B08F0B3FE0E4A02EB0612A7
:104F7000C2E902011BB0BDEC068BBDE8F08F00005A
:104F800000000000000000000000000084D79741EE
:104F9000000000000080564058090020000000007A
:104FA00000806640F809002010B50446A07801286A
:104FB0000FD1E0780749087008460078012808D129
:104FC00007F054FF0021044A10605160034A116049
:104FD000516010BD9F000020B0010020B8010020EA
:104FE00070B52DED048B00247CE2FB48005D0D289C
:104FF0007ED10020F9490870F94805F0A5FBF94970
:105000000860F7480A3005F09FFBF7490860F4484C
:10501000173005F099FBF5490860F148213005F09B
:1050200093FBF3490860EE48513005F08DFBF14ADF
:1050300003C2F048D0E90020EF4BD21A70F1FF30E4
:1050400003DA98130021EB4A03C2E64800686421A2
:10505000B0FBF1F0E9490860E24800686421B0FB68
:10506000F1F201FB1205284608F090FBE44A03C266
:10507000E448006808F08AFB41EC180BDA48006845
:1050800008F084FB41EC190B53EC182B08F0A4F941
:10509000DD4A03C2DC4890ED000B53EC102BD848DE
:1050A00090ED000B51EC100B08F0DAF841EC180B06
:1050B0009FEDD60B53EC102B08F08EF9D54A03C2A6
:1050C000CE48006808F062FB41EC180BD14890ED27
:1050D000000B53EC102B51EC180B08F0C1F8CE4A22
:1050E00003C2C24800686421B0FBF1F0CB4900E084
:1050F000F7E00860BD4800686421B0FBF1F201FBF5
:105100001205284608F042FBC54A03C2C54800689C
:1051100008F03CFB41EC180BB548006808F036FB82
:1051200041EC190B53EC182B08F056F9BE4A03C298
:10513000BD4890ED000B53EC102BB94890ED000BDF
:1051400051EC100B08F08CF841EC180B9FEDAF0BF5
:1051500053EC102B08F040F9B44A03C2AF48006882
:1051600008F014FB41EC180BB04890ED000B53EC29
:10517000102B51EC180B08F073F8AD4A03C29FEDE9
:10518000AD0B53EC102BA44890ED000B51EC100B21
:1051900008F056FB11D29FEDA90B53EC102B9E4843
:1051A00090ED000B51EC100B08F084FC05D29A48EE
:1051B00090ED000BA34880ED000B9FEDA30B53EC8B
:1051C000102B9B4890ED000B51EC100B08F038FBB6
:1051D00011D29FED8E0B53EC102B954890ED000BE8
:1051E00051EC100B08F066FC05D2914890ED000BD5
:1051F000974880ED000B0420964908707D480078A0
:1052000048707C48018800794FF47F4319400020A2
:10521000020642EA11208F498870764801680079B9
:105220001A0211400020020442EA11408949C87064
:105230007049086809791B0418400021000E40EAF3
:1052400001208449087166480F3890F83E00487183
:1052500063480F3890F8490088710020C8712420F5
:105260007D4981F86800A02081F86900102081F84C
:105270006A00052081F86B00002007E075490A5C90
:1052800000F16C01744B5A54411CC8B20828F5DB7C
:105290000B217148693005F0CCFA6F4981F8740030
:1052A00014214F48513005F0B9FA0C214C480A300E
:1052B00005F0B4FA0A214A4805F0B0FA0A21484834
:1052C000173005F0ABFA0C214548213005F0A6FA5D
:1052D00001204C4908605349086064213E4805F0AC
:1052E0009DFA3D48005D2C2874D03C4800780A287F
:1052F00011D2DFE800F0E505113C43B7BDC3E5CFAF
:105300003548015D554802680068401C534B1860E1
:1053100033480F388154D3E05148007850B92E48B3
:10532000015D4E4802680068401C4C4B18602C48D8
:10533000815411E02848015D484802680068401C1B
:10534000464B186026480A3081542E48006800EB0E
:10535000800040002B4908601F48005D2E2805D1C1
:1053600001203F49087000203C490860A8E01A4825
:10537000005D1B490F3981F82500A1E0384800780D
:1053800058B91548015D354802680068401C334B28
:10539000186013481730815411E00F48015D2F4801
:1053A00002680068401C2D4B18600D482130815464
:1053B0001C48006800EB800040001A49086006485D
:1053C000005D2E2805D101202549087000202349C1
:1053D000086075E075E00000950F0020CC0100200A
:1053E000F3080020D8010020E0010020DC010020AB
:1053F000E4010020D0010020F0D8FFFFE8010020E8
:10540000F001002010020020F80100200000000040
:1054100000004E400002002008020020140200207C
:10542000180200203802002020020020280200205C
:10543000300200200000000000004C40000000008E
:1054400000804A40A80000200000000000004F40FB
:10545000B000002075000020980A0020C401002040
:10546000CD0100202448005D244981F83C0027E05C
:105470002148005D214981F83D0021E01E48015D81
:105480001F4802680068401C1D4B18601B483F30D5
:10549000815415E01848015D1A4802680068401CF4
:1054A000184B18601548603081541348005D2E2851
:1054B00005D101201449087000201149086000BF7F
:1054C0000EE01248007858B111480078401C10498D
:1054D000087000200C4908700949086009490860F3
:1054E000601C84B20448FBF729F8A0423FF67DAD6A
:1054F000BDEC048B70BD0000950F0020E408002077
:10550000C4010020C8010020CD010020210100209D
:10551000CC01002010B504462079092828D2DFE804
:1055200000F0050B122719272727200000207A49B1
:1055300008707A49087021E0082077490870002037
:10554000764908701AE010207349087000207349EA
:10555000087013E000207049087008206F49087037
:105560000CE000206C49087010206C49087005E0C0
:105570000020694908706949087000BF00BFA07920
:10558000642805D10020664908706649087018E053
:10559000A07964280ADDA07964386149087008465A
:1055A0000078C0F1FF005F4908700AE0A079C0F1FF
:1055B00064005C49087008460078C0F1FF00584953
:1055C00008706079642805D1002057490870574950
:1055D000087018E0607964280ADD607964385249FF
:1055E000087008460078C0F1FF00504908700AE0D2
:1055F0006079C0F164004D49087008460078C0F138
:10560000FF0049490870207A642805D100204849E4
:1056100008704849087018E0207A64280ADD207A6A
:1056200064384349087008460078C0F1FF004149DA
:1056300008700AE0207AC0F164003E49087008460C
:105640000078C0F1FF003A490870E079642805D17C
:105650000020394908703949087018E0E079642859
:105660000ADDE07964383449087008460078C0F1F2
:10567000FF00324908700AE0E079C0F164002F4968
:10568000087008460078C0F1FF002B490870607A66
:105690002B49087008460078FF2801DBFF200870BE
:1056A000FF20284908704870887025480078C87025
:1056B000FF2008714871002088710120C871002006
:1056C0002149087048708870C870087148718871E5
:1056D000A07AF82808D101201C490870F1201A4945
:1056E000C87101201A490870A07A40B900201749F2
:1056F0000870F0201449C87101201549087007F09E
:10570000B5FB0021134A10605160134A11605160CB
:1057100001201249087010BDA9010020AA01002033
:10572000A1010020A2010020A3010020A40100206B
:10573000A5010020A6010020A7010020A80100204B
:10574000AB0100208D00002095000020AC0100205E
:10575000AD010020B0010020B8010020F5000020BC
:1057600000218278012A00D101218278022A00D109
:105770000221012902D1C278034B1A70022902D1F9
:10578000C278024B1A707047A0000020A1000020D0
:1057900000B585B0A0208DF8010000235A1E69468F
:1057A0000248006807F0F2F805B000BD24000020B0
:1057B0002DE9F0472DED068B88B09FED661B9FED20
:1057C000670B03F071FAB0EE409AF0EE609A9FED2D
:1057D000650B53EC102B654890ED000B51EC100B52
:1057E00007F03EFD53EC192B08F066F808F0DAFBE1
:1057F000804689469FED571B9FED580B03F054FAE6
:10580000B0EE409AF0EE609A9FED590B53EC102BDE
:10581000594890ED000B51EC100B07F021FD53ECB3
:10582000192B08F049F808F0BDFBCDE90001242050
:105830008DF8080012208DF809004FF0000A0FE0E3
:105840004FEACA0244464D4620462946FAF732FE40
:10585000C1B202AA0AF102001154401E00F0FF0A70
:10586000BAF1040FECDD4FF0000A0FE04FEACA0274
:10587000DDE9006730463946FAF71CFEC1B202AADC
:105880000AF107001154801F00F0FF0ABAF1040F5B
:10589000ECDD3A4890ED000B51EC100B07F0AEFC3C
:1058A00008EE100AB0EE480A04F026F8BCEEC00A72
:1058B00010EE100AC0B28DF81400304890ED000BC5
:1058C00051EC100B07F09AFC08EE100AB0EE480AF3
:1058D00004F012F8BCEEC00A10EE100A000A8DF8AF
:1058E0001500FAF723FD322190FBF1F201FB1200C3
:1058F000C0B28DF8170004208DF8160020480078FB
:105900008DF8180010210DF1090004F092FF8DF8B8
:1059100019001C480078401C1A4908700846007895
:10592000032803D108460078401C08701548007809
:10593000052802DD00201349087000235A1E02A921
:105940001148006807F022F808B0BDEC068BBDE8EE
:10595000F087000000000000000020400000000070
:10596000000024400000000000805640900100200C
:10597000000000000080664098010020D800002050
:105980009F000020A00100202400002000201749D3
:10599000087048708870C870FF2008710020487136
:1059A0008871FF20C8710020114908704870887004
:1059B000C870FF200871002048718871FF20C871ED
:1059C0009FED0C0A0C4880ED000AFF200B4908707F
:1059D000487088700A480078C870FF2008714871C4
:1059E000002088710120C871704700007D000020F0
:1059F0008500002000000000F00000208D00002045
:105A0000AB010020002807DD184B58701A46527869
:105A1000C2F1FF02DA700EE0002808DA4242134BAE
:105A2000DA701A46D278C2F1FF025A7003E07D2282
:105A30000E4B5A70DA70002907DD0C4B19701A46AC
:105A40001278C2F1FF029A700EE0002908DA4A4289
:105A5000064B9A701A469278C2F1FF021A7003E060
:105A60007D22024B9A701A70704700007D00002062
:105A7000FFF736F800BF07F0F9F90021194A18CAF4
:105A8000C21A61EB0401643A71F100011BDB40F2C0
:105A9000951215491548FBF7FFF84FF4CB721449DE
:105AA0001248FBF7F9F84FF4CC7212490F48FBF794
:105AB000F3F8114A11490D48FBF7EEF807F0D6F953
:105AC0000021084A03C20E48007838B10D4A0E4939
:105AD0000648FBF7E1F8002009490870012005F0AD
